{
  "_format": "hh-sol-artifact-1",
  "contractName": "Lottery",
  "sourceName": "contracts/lottery.sol",
  "abi": [
    {
      "inputs": [
        {
          "internalType": "address",
          "name": "vrfCoordinatorV2",
          "type": "address"
        },
        {
          "internalType": "uint256",
          "name": "_entraceFee",
          "type": "uint256"
        },
        {
          "internalType": "bytes32",
          "name": "gasLane",
          "type": "bytes32"
        },
        {
          "internalType": "uint64",
          "name": "subscriptionId",
          "type": "uint64"
        },
        {
          "internalType": "uint32",
          "name": "callbackGasLimit",
          "type": "uint32"
        },
        {
          "internalType": "uint256",
          "name": "interval",
          "type": "uint256"
        }
      ],
      "stateMutability": "nonpayable",
      "type": "constructor"
    },
    {
      "inputs": [],
      "name": "Lottery__InsufficentETHEntered",
      "type": "error"
    },
    {
      "inputs": [],
      "name": "Lottery__NotOpen",
      "type": "error"
    },
    {
      "inputs": [],
      "name": "Lottery__TransferFailed",
      "type": "error"
    },
    {
      "inputs": [
        {
          "internalType": "uint256",
          "name": "currentBalance",
          "type": "uint256"
        },
        {
          "internalType": "uint256",
          "name": "numPlayers",
          "type": "uint256"
        },
        {
          "internalType": "uint256",
          "name": "lotteryState",
          "type": "uint256"
        }
      ],
      "name": "Lottery__UpkeepNotNeeded",
      "type": "error"
    },
    {
      "inputs": [
        {
          "internalType": "address",
          "name": "have",
          "type": "address"
        },
        {
          "internalType": "address",
          "name": "want",
          "type": "address"
        }
      ],
      "name": "OnlyCoordinatorCanFulfill",
      "type": "error"
    },
    {
      "anonymous": false,
      "inputs": [
        {
          "indexed": true,
          "internalType": "address",
          "name": "player",
          "type": "address"
        }
      ],
      "name": "LotteryEnter",
      "type": "event"
    },
    {
      "anonymous": false,
      "inputs": [
        {
          "indexed": true,
          "internalType": "uint256",
          "name": "requestId",
          "type": "uint256"
        }
      ],
      "name": "RequestedLotteryWinner",
      "type": "event"
    },
    {
      "anonymous": false,
      "inputs": [
        {
          "indexed": true,
          "internalType": "address",
          "name": "winner",
          "type": "address"
        }
      ],
      "name": "WinnerPicked",
      "type": "event"
    },
    {
      "inputs": [
        {
          "internalType": "bytes",
          "name": "",
          "type": "bytes"
        }
      ],
      "name": "checkUpkeep",
      "outputs": [
        {
          "internalType": "bool",
          "name": "upkeepNeeded",
          "type": "bool"
        },
        {
          "internalType": "bytes",
          "name": "",
          "type": "bytes"
        }
      ],
      "stateMutability": "nonpayable",
      "type": "function"
    },
    {
      "inputs": [],
      "name": "enterLottery",
      "outputs": [],
      "stateMutability": "payable",
      "type": "function"
    },
    {
      "inputs": [],
      "name": "getEntranceFee",
      "outputs": [
        {
          "internalType": "uint256",
          "name": "",
          "type": "uint256"
        }
      ],
      "stateMutability": "view",
      "type": "function"
    },
    {
      "inputs": [],
      "name": "getInterval",
      "outputs": [
        {
          "internalType": "uint256",
          "name": "",
          "type": "uint256"
        }
      ],
      "stateMutability": "view",
      "type": "function"
    },
    {
      "inputs": [],
      "name": "getLatestTimeStamp",
      "outputs": [
        {
          "internalType": "uint256",
          "name": "",
          "type": "uint256"
        }
      ],
      "stateMutability": "view",
      "type": "function"
    },
    {
      "inputs": [],
      "name": "getLotteryState",
      "outputs": [
        {
          "internalType": "enum Lottery.LotteryState",
          "name": "",
          "type": "uint8"
        }
      ],
      "stateMutability": "view",
      "type": "function"
    },
    {
      "inputs": [],
      "name": "getNumWords",
      "outputs": [
        {
          "internalType": "uint256",
          "name": "",
          "type": "uint256"
        }
      ],
      "stateMutability": "pure",
      "type": "function"
    },
    {
      "inputs": [],
      "name": "getNumberOfPlayers",
      "outputs": [
        {
          "internalType": "uint256",
          "name": "",
          "type": "uint256"
        }
      ],
      "stateMutability": "view",
      "type": "function"
    },
    {
      "inputs": [
        {
          "internalType": "uint256",
          "name": "index",
          "type": "uint256"
        }
      ],
      "name": "getPlayer",
      "outputs": [
        {
          "internalType": "address",
          "name": "",
          "type": "address"
        }
      ],
      "stateMutability": "view",
      "type": "function"
    },
    {
      "inputs": [],
      "name": "getRecentWinner",
      "outputs": [
        {
          "internalType": "address",
          "name": "",
          "type": "address"
        }
      ],
      "stateMutability": "view",
      "type": "function"
    },
    {
      "inputs": [],
      "name": "getRequestConfirmations",
      "outputs": [
        {
          "internalType": "uint256",
          "name": "",
          "type": "uint256"
        }
      ],
      "stateMutability": "pure",
      "type": "function"
    },
    {
      "inputs": [],
      "name": "getSubId",
      "outputs": [
        {
          "internalType": "uint256",
          "name": "",
          "type": "uint256"
        }
      ],
      "stateMutability": "view",
      "type": "function"
    },
    {
      "inputs": [
        {
          "internalType": "bytes",
          "name": "",
          "type": "bytes"
        }
      ],
      "name": "performUpkeep",
      "outputs": [],
      "stateMutability": "nonpayable",
      "type": "function"
    },
    {
      "inputs": [
        {
          "internalType": "uint256",
          "name": "requestId",
          "type": "uint256"
        },
        {
          "internalType": "uint256[]",
          "name": "randomWords",
          "type": "uint256[]"
        }
      ],
      "name": "rawFulfillRandomWords",
      "outputs": [],
      "stateMutability": "nonpayable",
      "type": "function"
    }
  ],
  "bytecode": "0x6101606040523480156200001257600080fd5b50604051620018ec380380620018ec8339818101604052810190620000389190620002a0565b858073ffffffffffffffffffffffffffffffffffffffff1660808173ffffffffffffffffffffffffffffffffffffffff1660601b81525050508460a081815250508573ffffffffffffffffffffffffffffffffffffffff1660c08173ffffffffffffffffffffffffffffffffffffffff1660601b815250508360e081815250508267ffffffffffffffff166101008167ffffffffffffffff1660c01b815250508163ffffffff166101208163ffffffff1660e01b815250506000600160146101000a81548160ff021916908360018111156200011957620001186200033c565b5b0217905550426002819055508061014081815250505050505050506200036b565b600080fd5b600073ffffffffffffffffffffffffffffffffffffffff82169050919050565b60006200016c826200013f565b9050919050565b6200017e816200015f565b81146200018a57600080fd5b50565b6000815190506200019e8162000173565b92915050565b6000819050919050565b620001b981620001a4565b8114620001c557600080fd5b50565b600081519050620001d981620001ae565b92915050565b6000819050919050565b620001f481620001df565b81146200020057600080fd5b50565b6000815190506200021481620001e9565b92915050565b600067ffffffffffffffff82169050919050565b62000239816200021a565b81146200024557600080fd5b50565b60008151905062000259816200022e565b92915050565b600063ffffffff82169050919050565b6200027a816200025f565b81146200028657600080fd5b50565b6000815190506200029a816200026f565b92915050565b60008060008060008060c08789031215620002c057620002bf6200013a565b5b6000620002d089828a016200018d565b9650506020620002e389828a01620001c8565b9550506040620002f689828a0162000203565b94505060606200030989828a0162000248565b93505060806200031c89828a0162000289565b92505060a06200032f89828a01620001c8565b9150509295509295509295565b7f4e487b7100000000000000000000000000000000000000000000000000000000600052602160045260246000fd5b60805160601c60a05160c05160601c60e0516101005160c01c6101205160e01c610140516114fe620003ee600039600081816106cd015261077601526000610565015260008181610542015261095401526000610521015260006104e5015260008181610340015261079c01526000818161036601526103ba01526114fe6000f3fe6080604052600436106100dd5760003560e01c80636b68c03c1161007f578063c1af578511610059578063c1af57851461029f578063e55ae4e8146102a9578063fbc6ba6f146102e6578063fd6673f514610311576100dd565b80636b68c03c1461020b5780636e04ff0d1461023657806391ad27b414610274576100dd565b80634585e33b116100bb5780634585e33b14610161578063473f1ddc1461018a57806353a2c19a146101b55780635f1b0fd8146101e0576100dd565b806309bc33a7146100e25780631fe543e31461010d578063320229eb14610136575b600080fd5b3480156100ee57600080fd5b506100f761033c565b6040516101049190610c7f565b60405180910390f35b34801561011957600080fd5b50610134600480360381019061012f9190610e33565b610364565b005b34801561014257600080fd5b5061014b610424565b6040516101589190610c7f565b60405180910390f35b34801561016d57600080fd5b5061018860048036038101906101839190610eea565b61042e565b005b34801561019657600080fd5b5061019f61062d565b6040516101ac9190610f78565b60405180910390f35b3480156101c157600080fd5b506101ca610657565b6040516101d79190610c7f565b60405180910390f35b3480156101ec57600080fd5b506101f5610666565b6040516102029190610c7f565b60405180910390f35b34801561021757600080fd5b50610220610673565b60405161022d919061100a565b60405180910390f35b34801561024257600080fd5b5061025d600480360381019061025891906110da565b61068a565b60405161026b9291906111c6565b60405180910390f35b34801561028057600080fd5b50610289610772565b6040516102969190610c7f565b60405180910390f35b6102a761079a565b005b3480156102b557600080fd5b506102d060048036038101906102cb91906111f6565b610909565b6040516102dd9190610f78565b60405180910390f35b3480156102f257600080fd5b506102fb610950565b6040516103089190610c7f565b60405180910390f35b34801561031d57600080fd5b50610326610982565b6040516103339190610c7f565b60405180910390f35b60007f0000000000000000000000000000000000000000000000000000000000000000905090565b7f000000000000000000000000000000000000000000000000000000000000000073ffffffffffffffffffffffffffffffffffffffff163373ffffffffffffffffffffffffffffffffffffffff161461041657337f00000000000000000000000000000000000000000000000000000000000000006040517f1cf993f400000000000000000000000000000000000000000000000000000000815260040161040d929190611223565b60405180910390fd5b610420828261098e565b5050565b6000600254905090565b60006104486040518060200160405280600081525061068a565b509050806104b75747600080549050600160149054906101000a900460ff16600181111561047957610478610f93565b5b6040517f6e195f250000000000000000000000000000000000000000000000000000000081526004016104ae9392919061124c565b60405180910390fd5b60018060146101000a81548160ff021916908360018111156104dc576104db610f93565b5b021790555060007f000000000000000000000000000000000000000000000000000000000000000073ffffffffffffffffffffffffffffffffffffffff16635d3b1d307f00000000000000000000000000000000000000000000000000000000000000007f000000000000000000000000000000000000000000000000000000000000000060037f000000000000000000000000000000000000000000000000000000000000000060016040518663ffffffff1660e01b81526004016105a69594939291906112fb565b602060405180830381600087803b1580156105c057600080fd5b505af11580156105d4573d6000803e3d6000fd5b505050506040513d601f19601f820116820180604052508101906105f89190611363565b9050807febf56642252004c18a776f30d528e7a0ce8c5db14b6596fb6550f630c8a24c6c60405160405180910390a250505050565b6000600160009054906101000a900473ffffffffffffffffffffffffffffffffffffffff16905090565b6000600163ffffffff16905090565b6000600361ffff16905090565b6000600160149054906101000a900460ff16905090565b600060606000600160149054906101000a900460ff1660018111156106b2576106b1610f93565b5b600060018111156106c6576106c5610f93565b5b14905060007f0000000000000000000000000000000000000000000000000000000000000000600254426106fa91906113bf565b1190506000806000805490501190506000804711905083801561071a5750825b80156107235750815b801561072c5750805b9550856040518060400160405280600381526020017f30783000000000000000000000000000000000000000000000000000000000008152509550955050505050915091565b60007f0000000000000000000000000000000000000000000000000000000000000000905090565b7f00000000000000000000000000000000000000000000000000000000000000003410156107f4576040517fda4b15cb00000000000000000000000000000000000000000000000000000000815260040160405180910390fd5b6000600181111561080857610807610f93565b5b600160149054906101000a900460ff16600181111561082a57610829610f93565b5b14610861576040517fe76be6fc00000000000000000000000000000000000000000000000000000000815260040160405180910390fd5b6000339080600181540180825580915050600190039060005260206000200160009091909190916101000a81548173ffffffffffffffffffffffffffffffffffffffff021916908373ffffffffffffffffffffffffffffffffffffffff1602179055503373ffffffffffffffffffffffffffffffffffffffff167f1d64fb5ba9f2548c5b98468d58f25b87b9e866afee0122e92d9fe722bf85076c60405160405180910390a2565b600080828154811061091e5761091d6113f3565b5b9060005260206000200160009054906101000a900473ffffffffffffffffffffffffffffffffffffffff169050919050565b60007f000000000000000000000000000000000000000000000000000000000000000067ffffffffffffffff16905090565b60008080549050905090565b60008080549050826000815181106109a9576109a86113f3565b5b60200260200101516109bb9190611451565b905060008082815481106109d2576109d16113f3565b5b9060005260206000200160009054906101000a900473ffffffffffffffffffffffffffffffffffffffff16905080600160006101000a81548173ffffffffffffffffffffffffffffffffffffffff021916908373ffffffffffffffffffffffffffffffffffffffff1602179055506000600160146101000a81548160ff02191690836001811115610a6657610a65610f93565b5b0217905550600067ffffffffffffffff811115610a8657610a85610cf0565b5b604051908082528060200260200182016040528015610ab45781602001602082028036833780820191505090505b5060009080519060200190610aca929190610bbf565b504260028190555060008173ffffffffffffffffffffffffffffffffffffffff1647604051610af8906114b3565b60006040518083038185875af1925050503d8060008114610b35576040519150601f19603f3d011682016040523d82523d6000602084013e610b3a565b606091505b5050905080610b75576040517f1c94012000000000000000000000000000000000000000000000000000000000815260040160405180910390fd5b8173ffffffffffffffffffffffffffffffffffffffff167f5b690ec4a06fe979403046eaeea5b3ce38524683c3001f662c8b5a829632f7df60405160405180910390a25050505050565b828054828255906000526020600020908101928215610c38579160200282015b82811115610c375782518260006101000a81548173ffffffffffffffffffffffffffffffffffffffff021916908373ffffffffffffffffffffffffffffffffffffffff16021790555091602001919060010190610bdf565b5b509050610c459190610c49565b5090565b5b80821115610c62576000816000905550600101610c4a565b5090565b6000819050919050565b610c7981610c66565b82525050565b6000602082019050610c946000830184610c70565b92915050565b6000604051905090565b600080fd5b600080fd5b610cb781610c66565b8114610cc257600080fd5b50565b600081359050610cd481610cae565b92915050565b600080fd5b6000601f19601f8301169050919050565b7f4e487b7100000000000000000000000000000000000000000000000000000000600052604160045260246000fd5b610d2882610cdf565b810181811067ffffffffffffffff82111715610d4757610d46610cf0565b5b80604052505050565b6000610d5a610c9a565b9050610d668282610d1f565b919050565b600067ffffffffffffffff821115610d8657610d85610cf0565b5b602082029050602081019050919050565b600080fd5b6000610daf610daa84610d6b565b610d50565b90508083825260208201905060208402830185811115610dd257610dd1610d97565b5b835b81811015610dfb5780610de78882610cc5565b845260208401935050602081019050610dd4565b5050509392505050565b600082601f830112610e1a57610e19610cda565b5b8135610e2a848260208601610d9c565b91505092915050565b60008060408385031215610e4a57610e49610ca4565b5b6000610e5885828601610cc5565b925050602083013567ffffffffffffffff811115610e7957610e78610ca9565b5b610e8585828601610e05565b9150509250929050565b600080fd5b60008083601f840112610eaa57610ea9610cda565b5b8235905067ffffffffffffffff811115610ec757610ec6610e8f565b5b602083019150836001820283011115610ee357610ee2610d97565b5b9250929050565b60008060208385031215610f0157610f00610ca4565b5b600083013567ffffffffffffffff811115610f1f57610f1e610ca9565b5b610f2b85828601610e94565b92509250509250929050565b600073ffffffffffffffffffffffffffffffffffffffff82169050919050565b6000610f6282610f37565b9050919050565b610f7281610f57565b82525050565b6000602082019050610f8d6000830184610f69565b92915050565b7f4e487b7100000000000000000000000000000000000000000000000000000000600052602160045260246000fd5b60028110610fd357610fd2610f93565b5b50565b6000819050610fe482610fc2565b919050565b6000610ff482610fd6565b9050919050565b61100481610fe9565b82525050565b600060208201905061101f6000830184610ffb565b92915050565b600080fd5b600067ffffffffffffffff82111561104557611044610cf0565b5b61104e82610cdf565b9050602081019050919050565b82818337600083830152505050565b600061107d6110788461102a565b610d50565b90508281526020810184848401111561109957611098611025565b5b6110a484828561105b565b509392505050565b600082601f8301126110c1576110c0610cda565b5b81356110d184826020860161106a565b91505092915050565b6000602082840312156110f0576110ef610ca4565b5b600082013567ffffffffffffffff81111561110e5761110d610ca9565b5b61111a848285016110ac565b91505092915050565b60008115159050919050565b61113881611123565b82525050565b600081519050919050565b600082825260208201905092915050565b60005b8381101561117857808201518184015260208101905061115d565b83811115611187576000848401525b50505050565b60006111988261113e565b6111a28185611149565b93506111b281856020860161115a565b6111bb81610cdf565b840191505092915050565b60006040820190506111db600083018561112f565b81810360208301526111ed818461118d565b90509392505050565b60006020828403121561120c5761120b610ca4565b5b600061121a84828501610cc5565b91505092915050565b60006040820190506112386000830185610f69565b6112456020830184610f69565b9392505050565b60006060820190506112616000830186610c70565b61126e6020830185610c70565b61127b6040830184610c70565b949350505050565b6000819050919050565b61129681611283565b82525050565b600067ffffffffffffffff82169050919050565b6112b98161129c565b82525050565b600061ffff82169050919050565b6112d6816112bf565b82525050565b600063ffffffff82169050919050565b6112f5816112dc565b82525050565b600060a082019050611310600083018861128d565b61131d60208301876112b0565b61132a60408301866112cd565b61133760608301856112ec565b61134460808301846112ec565b9695505050505050565b60008151905061135d81610cae565b92915050565b60006020828403121561137957611378610ca4565b5b60006113878482850161134e565b91505092915050565b7f4e487b7100000000000000000000000000000000000000000000000000000000600052601160045260246000fd5b60006113ca82610c66565b91506113d583610c66565b9250828210156113e8576113e7611390565b5b828203905092915050565b7f4e487b7100000000000000000000000000000000000000000000000000000000600052603260045260246000fd5b7f4e487b7100000000000000000000000000000000000000000000000000000000600052601260045260246000fd5b600061145c82610c66565b915061146783610c66565b92508261147757611476611422565b5b828206905092915050565b600081905092915050565b50565b600061149d600083611482565b91506114a88261148d565b600082019050919050565b60006114be82611490565b915081905091905056fea2646970667358221220bf120f938ae83116bd4ea3b7798c69fedc1c298741cf2016a8069d49acfe44a064736f6c63430008080033",
  "linkReferences": {},
  "deployedLinkReferences": {}
}