{
  "_format": "hh-sol-artifact-1",
  "contractName": "Lottery",
  "sourceName": "contracts/lottery.sol",
  "abi": [
    {
      "inputs": [
        {
          "internalType": "address",
          "name": "vrfCoordinatorV2",
          "type": "address"
        },
        {
          "internalType": "uint256",
          "name": "_entraceFee",
          "type": "uint256"
        },
        {
          "internalType": "bytes32",
          "name": "gasLane",
          "type": "bytes32"
        },
        {
          "internalType": "uint64",
          "name": "subscriptionId",
          "type": "uint64"
        },
        {
          "internalType": "uint32",
          "name": "callbackGasLimit",
          "type": "uint32"
        },
        {
          "internalType": "uint256",
          "name": "interval",
          "type": "uint256"
        }
      ],
      "stateMutability": "nonpayable",
      "type": "constructor"
    },
    {
      "inputs": [],
      "name": "Lottery__InsufficentETHEntered",
      "type": "error"
    },
    {
      "inputs": [],
      "name": "Lottery__NotOpen",
      "type": "error"
    },
    {
      "inputs": [],
      "name": "Lottery__TransferFailed",
      "type": "error"
    },
    {
      "inputs": [
        {
          "internalType": "uint256",
          "name": "currentBalance",
          "type": "uint256"
        },
        {
          "internalType": "uint256",
          "name": "numPlayers",
          "type": "uint256"
        },
        {
          "internalType": "uint256",
          "name": "lotteryState",
          "type": "uint256"
        }
      ],
      "name": "Lottery__UpkeepNotNeeded",
      "type": "error"
    },
    {
      "inputs": [
        {
          "internalType": "address",
          "name": "have",
          "type": "address"
        },
        {
          "internalType": "address",
          "name": "want",
          "type": "address"
        }
      ],
      "name": "OnlyCoordinatorCanFulfill",
      "type": "error"
    },
    {
      "anonymous": false,
      "inputs": [
        {
          "indexed": true,
          "internalType": "address",
          "name": "player",
          "type": "address"
        }
      ],
      "name": "LotteryEnter",
      "type": "event"
    },
    {
      "anonymous": false,
      "inputs": [
        {
          "indexed": true,
          "internalType": "uint256",
          "name": "requestId",
          "type": "uint256"
        }
      ],
      "name": "RequestedLotteryWinner",
      "type": "event"
    },
    {
      "anonymous": false,
      "inputs": [
        {
          "indexed": true,
          "internalType": "address",
          "name": "winner",
          "type": "address"
        }
      ],
      "name": "WinnerPicked",
      "type": "event"
    },
    {
      "inputs": [
        {
          "internalType": "bytes",
          "name": "",
          "type": "bytes"
        }
      ],
      "name": "checkUpkeep",
      "outputs": [
        {
          "internalType": "bool",
          "name": "upkeepNeeded",
          "type": "bool"
        },
        {
          "internalType": "bytes",
          "name": "",
          "type": "bytes"
        }
      ],
      "stateMutability": "nonpayable",
      "type": "function"
    },
    {
      "inputs": [],
      "name": "enterLottery",
      "outputs": [],
      "stateMutability": "payable",
      "type": "function"
    },
    {
      "inputs": [],
      "name": "getEntranceFee",
      "outputs": [
        {
          "internalType": "uint256",
          "name": "",
          "type": "uint256"
        }
      ],
      "stateMutability": "view",
      "type": "function"
    },
    {
      "inputs": [],
      "name": "getLotteryState",
      "outputs": [
        {
          "internalType": "enum Lottery.LotteryState",
          "name": "",
          "type": "uint8"
        }
      ],
      "stateMutability": "view",
      "type": "function"
    },
    {
      "inputs": [],
      "name": "getNumWords",
      "outputs": [
        {
          "internalType": "uint256",
          "name": "",
          "type": "uint256"
        }
      ],
      "stateMutability": "pure",
      "type": "function"
    },
    {
      "inputs": [],
      "name": "getNumberOfPlayers",
      "outputs": [
        {
          "internalType": "uint256",
          "name": "",
          "type": "uint256"
        }
      ],
      "stateMutability": "view",
      "type": "function"
    },
    {
      "inputs": [
        {
          "internalType": "uint256",
          "name": "index",
          "type": "uint256"
        }
      ],
      "name": "getPlayer",
      "outputs": [
        {
          "internalType": "address",
          "name": "",
          "type": "address"
        }
      ],
      "stateMutability": "view",
      "type": "function"
    },
    {
      "inputs": [],
      "name": "getRecentWinner",
      "outputs": [
        {
          "internalType": "address",
          "name": "",
          "type": "address"
        }
      ],
      "stateMutability": "view",
      "type": "function"
    },
    {
      "inputs": [],
      "name": "getRequestConfirmations",
      "outputs": [
        {
          "internalType": "uint256",
          "name": "",
          "type": "uint256"
        }
      ],
      "stateMutability": "pure",
      "type": "function"
    },
    {
      "inputs": [
        {
          "internalType": "bytes",
          "name": "",
          "type": "bytes"
        }
      ],
      "name": "performUpkeep",
      "outputs": [],
      "stateMutability": "nonpayable",
      "type": "function"
    },
    {
      "inputs": [
        {
          "internalType": "uint256",
          "name": "requestId",
          "type": "uint256"
        },
        {
          "internalType": "uint256[]",
          "name": "randomWords",
          "type": "uint256[]"
        }
      ],
      "name": "rawFulfillRandomWords",
      "outputs": [],
      "stateMutability": "nonpayable",
      "type": "function"
    }
  ],
  "bytecode": "0x6101606040523480156200001257600080fd5b50604051620017b8380380620017b88339818101604052810190620000389190620002a0565b858073ffffffffffffffffffffffffffffffffffffffff1660808173ffffffffffffffffffffffffffffffffffffffff1660601b81525050508460a081815250508573ffffffffffffffffffffffffffffffffffffffff1660c08173ffffffffffffffffffffffffffffffffffffffff1660601b815250508360e081815250508267ffffffffffffffff166101008167ffffffffffffffff1660c01b815250508163ffffffff166101208163ffffffff1660e01b815250506000600160146101000a81548160ff021916908360018111156200011957620001186200033c565b5b0217905550426002819055508061014081815250505050505050506200036b565b600080fd5b600073ffffffffffffffffffffffffffffffffffffffff82169050919050565b60006200016c826200013f565b9050919050565b6200017e816200015f565b81146200018a57600080fd5b50565b6000815190506200019e8162000173565b92915050565b6000819050919050565b620001b981620001a4565b8114620001c557600080fd5b50565b600081519050620001d981620001ae565b92915050565b6000819050919050565b620001f481620001df565b81146200020057600080fd5b50565b6000815190506200021481620001e9565b92915050565b600067ffffffffffffffff82169050919050565b62000239816200021a565b81146200024557600080fd5b50565b60008151905062000259816200022e565b92915050565b600063ffffffff82169050919050565b6200027a816200025f565b81146200028657600080fd5b50565b6000815190506200029a816200026f565b92915050565b60008060008060008060c08789031215620002c057620002bf6200013a565b5b6000620002d089828a016200018d565b9650506020620002e389828a01620001c8565b9550506040620002f689828a0162000203565b94505060606200030989828a0162000248565b93505060806200031c89828a0162000289565b92505060a06200032f89828a01620001c8565b9150509295509295509295565b7f4e487b7100000000000000000000000000000000000000000000000000000000600052602160045260246000fd5b60805160601c60a05160c05160601c60e0516101005160c01c6101205160e01c610140516113d8620003e060003960006106010152600061049901526000610476015260006104550152600061041901526000818161027e01526106a80152600081816102a401526102f801526113d86000f3fe60806040526004361061009c5760003560e01c80635f1b0fd8116100645780635f1b0fd8146101745780636b68c03c1461019f5780636e04ff0d146101ca578063c1af578514610208578063e55ae4e814610212578063fd6673f51461024f5761009c565b806309bc33a7146100a15780631fe543e3146100cc5780634585e33b146100f5578063473f1ddc1461011e57806353a2c19a14610149575b600080fd5b3480156100ad57600080fd5b506100b661027a565b6040516100c39190610b59565b60405180910390f35b3480156100d857600080fd5b506100f360048036038101906100ee9190610d0d565b6102a2565b005b34801561010157600080fd5b5061011c60048036038101906101179190610dc4565b610362565b005b34801561012a57600080fd5b50610133610561565b6040516101409190610e52565b60405180910390f35b34801561015557600080fd5b5061015e61058b565b60405161016b9190610b59565b60405180910390f35b34801561018057600080fd5b5061018961059a565b6040516101969190610b59565b60405180910390f35b3480156101ab57600080fd5b506101b46105a7565b6040516101c19190610ee4565b60405180910390f35b3480156101d657600080fd5b506101f160048036038101906101ec9190610fb4565b6105be565b6040516101ff9291906110a0565b60405180910390f35b6102106106a6565b005b34801561021e57600080fd5b50610239600480360381019061023491906110d0565b610815565b6040516102469190610e52565b60405180910390f35b34801561025b57600080fd5b5061026461085c565b6040516102719190610b59565b60405180910390f35b60007f0000000000000000000000000000000000000000000000000000000000000000905090565b7f000000000000000000000000000000000000000000000000000000000000000073ffffffffffffffffffffffffffffffffffffffff163373ffffffffffffffffffffffffffffffffffffffff161461035457337f00000000000000000000000000000000000000000000000000000000000000006040517f1cf993f400000000000000000000000000000000000000000000000000000000815260040161034b9291906110fd565b60405180910390fd5b61035e8282610868565b5050565b600061037c604051806020016040528060008152506105be565b509050806103eb5747600080549050600160149054906101000a900460ff1660018111156103ad576103ac610e6d565b5b6040517f6e195f250000000000000000000000000000000000000000000000000000000081526004016103e293929190611126565b60405180910390fd5b60018060146101000a81548160ff021916908360018111156104105761040f610e6d565b5b021790555060007f000000000000000000000000000000000000000000000000000000000000000073ffffffffffffffffffffffffffffffffffffffff16635d3b1d307f00000000000000000000000000000000000000000000000000000000000000007f000000000000000000000000000000000000000000000000000000000000000060037f000000000000000000000000000000000000000000000000000000000000000060016040518663ffffffff1660e01b81526004016104da9594939291906111d5565b602060405180830381600087803b1580156104f457600080fd5b505af1158015610508573d6000803e3d6000fd5b505050506040513d601f19601f8201168201806040525081019061052c919061123d565b9050807febf56642252004c18a776f30d528e7a0ce8c5db14b6596fb6550f630c8a24c6c60405160405180910390a250505050565b6000600160009054906101000a900473ffffffffffffffffffffffffffffffffffffffff16905090565b6000600163ffffffff16905090565b6000600361ffff16905090565b6000600160149054906101000a900460ff16905090565b600060606000600160149054906101000a900460ff1660018111156105e6576105e5610e6d565b5b600060018111156105fa576105f9610e6d565b5b14905060007f00000000000000000000000000000000000000000000000000000000000000006002544261062e9190611299565b1190506000806000805490501190506000804711905083801561064e5750825b80156106575750815b80156106605750805b9550856040518060400160405280600381526020017f30783000000000000000000000000000000000000000000000000000000000008152509550955050505050915091565b7f0000000000000000000000000000000000000000000000000000000000000000341015610700576040517fda4b15cb00000000000000000000000000000000000000000000000000000000815260040160405180910390fd5b6000600181111561071457610713610e6d565b5b600160149054906101000a900460ff16600181111561073657610735610e6d565b5b1461076d576040517fe76be6fc00000000000000000000000000000000000000000000000000000000815260040160405180910390fd5b6000339080600181540180825580915050600190039060005260206000200160009091909190916101000a81548173ffffffffffffffffffffffffffffffffffffffff021916908373ffffffffffffffffffffffffffffffffffffffff1602179055503373ffffffffffffffffffffffffffffffffffffffff167f1d64fb5ba9f2548c5b98468d58f25b87b9e866afee0122e92d9fe722bf85076c60405160405180910390a2565b600080828154811061082a576108296112cd565b5b9060005260206000200160009054906101000a900473ffffffffffffffffffffffffffffffffffffffff169050919050565b60008080549050905090565b6000808054905082600081518110610883576108826112cd565b5b6020026020010151610895919061132b565b905060008082815481106108ac576108ab6112cd565b5b9060005260206000200160009054906101000a900473ffffffffffffffffffffffffffffffffffffffff16905080600160006101000a81548173ffffffffffffffffffffffffffffffffffffffff021916908373ffffffffffffffffffffffffffffffffffffffff1602179055506000600160146101000a81548160ff021916908360018111156109405761093f610e6d565b5b0217905550600067ffffffffffffffff8111156109605761095f610bca565b5b60405190808252806020026020018201604052801561098e5781602001602082028036833780820191505090505b50600090805190602001906109a4929190610a99565b504260028190555060008173ffffffffffffffffffffffffffffffffffffffff16476040516109d29061138d565b60006040518083038185875af1925050503d8060008114610a0f576040519150601f19603f3d011682016040523d82523d6000602084013e610a14565b606091505b5050905080610a4f576040517f1c94012000000000000000000000000000000000000000000000000000000000815260040160405180910390fd5b8173ffffffffffffffffffffffffffffffffffffffff167f5b690ec4a06fe979403046eaeea5b3ce38524683c3001f662c8b5a829632f7df60405160405180910390a25050505050565b828054828255906000526020600020908101928215610b12579160200282015b82811115610b115782518260006101000a81548173ffffffffffffffffffffffffffffffffffffffff021916908373ffffffffffffffffffffffffffffffffffffffff16021790555091602001919060010190610ab9565b5b509050610b1f9190610b23565b5090565b5b80821115610b3c576000816000905550600101610b24565b5090565b6000819050919050565b610b5381610b40565b82525050565b6000602082019050610b6e6000830184610b4a565b92915050565b6000604051905090565b600080fd5b600080fd5b610b9181610b40565b8114610b9c57600080fd5b50565b600081359050610bae81610b88565b92915050565b600080fd5b6000601f19601f8301169050919050565b7f4e487b7100000000000000000000000000000000000000000000000000000000600052604160045260246000fd5b610c0282610bb9565b810181811067ffffffffffffffff82111715610c2157610c20610bca565b5b80604052505050565b6000610c34610b74565b9050610c408282610bf9565b919050565b600067ffffffffffffffff821115610c6057610c5f610bca565b5b602082029050602081019050919050565b600080fd5b6000610c89610c8484610c45565b610c2a565b90508083825260208201905060208402830185811115610cac57610cab610c71565b5b835b81811015610cd55780610cc18882610b9f565b845260208401935050602081019050610cae565b5050509392505050565b600082601f830112610cf457610cf3610bb4565b5b8135610d04848260208601610c76565b91505092915050565b60008060408385031215610d2457610d23610b7e565b5b6000610d3285828601610b9f565b925050602083013567ffffffffffffffff811115610d5357610d52610b83565b5b610d5f85828601610cdf565b9150509250929050565b600080fd5b60008083601f840112610d8457610d83610bb4565b5b8235905067ffffffffffffffff811115610da157610da0610d69565b5b602083019150836001820283011115610dbd57610dbc610c71565b5b9250929050565b60008060208385031215610ddb57610dda610b7e565b5b600083013567ffffffffffffffff811115610df957610df8610b83565b5b610e0585828601610d6e565b92509250509250929050565b600073ffffffffffffffffffffffffffffffffffffffff82169050919050565b6000610e3c82610e11565b9050919050565b610e4c81610e31565b82525050565b6000602082019050610e676000830184610e43565b92915050565b7f4e487b7100000000000000000000000000000000000000000000000000000000600052602160045260246000fd5b60028110610ead57610eac610e6d565b5b50565b6000819050610ebe82610e9c565b919050565b6000610ece82610eb0565b9050919050565b610ede81610ec3565b82525050565b6000602082019050610ef96000830184610ed5565b92915050565b600080fd5b600067ffffffffffffffff821115610f1f57610f1e610bca565b5b610f2882610bb9565b9050602081019050919050565b82818337600083830152505050565b6000610f57610f5284610f04565b610c2a565b905082815260208101848484011115610f7357610f72610eff565b5b610f7e848285610f35565b509392505050565b600082601f830112610f9b57610f9a610bb4565b5b8135610fab848260208601610f44565b91505092915050565b600060208284031215610fca57610fc9610b7e565b5b600082013567ffffffffffffffff811115610fe857610fe7610b83565b5b610ff484828501610f86565b91505092915050565b60008115159050919050565b61101281610ffd565b82525050565b600081519050919050565b600082825260208201905092915050565b60005b83811015611052578082015181840152602081019050611037565b83811115611061576000848401525b50505050565b600061107282611018565b61107c8185611023565b935061108c818560208601611034565b61109581610bb9565b840191505092915050565b60006040820190506110b56000830185611009565b81810360208301526110c78184611067565b90509392505050565b6000602082840312156110e6576110e5610b7e565b5b60006110f484828501610b9f565b91505092915050565b60006040820190506111126000830185610e43565b61111f6020830184610e43565b9392505050565b600060608201905061113b6000830186610b4a565b6111486020830185610b4a565b6111556040830184610b4a565b949350505050565b6000819050919050565b6111708161115d565b82525050565b600067ffffffffffffffff82169050919050565b61119381611176565b82525050565b600061ffff82169050919050565b6111b081611199565b82525050565b600063ffffffff82169050919050565b6111cf816111b6565b82525050565b600060a0820190506111ea6000830188611167565b6111f7602083018761118a565b61120460408301866111a7565b61121160608301856111c6565b61121e60808301846111c6565b9695505050505050565b60008151905061123781610b88565b92915050565b60006020828403121561125357611252610b7e565b5b600061126184828501611228565b91505092915050565b7f4e487b7100000000000000000000000000000000000000000000000000000000600052601160045260246000fd5b60006112a482610b40565b91506112af83610b40565b9250828210156112c2576112c161126a565b5b828203905092915050565b7f4e487b7100000000000000000000000000000000000000000000000000000000600052603260045260246000fd5b7f4e487b7100000000000000000000000000000000000000000000000000000000600052601260045260246000fd5b600061133682610b40565b915061134183610b40565b925082611351576113506112fc565b5b828206905092915050565b600081905092915050565b50565b600061137760008361135c565b915061138282611367565b600082019050919050565b60006113988261136a565b915081905091905056fea2646970667358221220722de176e84ad392f4e150a2a1baf6332628f1cd6cf045a5a9b418eb316440b564736f6c63430008080033",
  "linkReferences": {},
  "deployedLinkReferences": {}
}