{
  "_format": "hh-sol-artifact-1",
  "contractName": "Lottery",
  "sourceName": "contracts/lottery.sol",
  "abi": [
    {
      "inputs": [
        {
          "internalType": "address",
          "name": "vrfCoordinatorV2",
          "type": "address"
        },
        {
          "internalType": "uint256",
          "name": "_entraceFee",
          "type": "uint256"
        },
        {
          "internalType": "bytes32",
          "name": "gasLane",
          "type": "bytes32"
        },
        {
          "internalType": "uint64",
          "name": "subscriptionId",
          "type": "uint64"
        },
        {
          "internalType": "uint32",
          "name": "callbackGasLimit",
          "type": "uint32"
        },
        {
          "internalType": "uint256",
          "name": "interval",
          "type": "uint256"
        }
      ],
      "stateMutability": "nonpayable",
      "type": "constructor"
    },
    {
      "inputs": [],
      "name": "Lottery__InsufficentETHEntered",
      "type": "error"
    },
    {
      "inputs": [],
      "name": "Lottery__NotOpen",
      "type": "error"
    },
    {
      "inputs": [],
      "name": "Lottery__TransferFailed",
      "type": "error"
    },
    {
      "inputs": [
        {
          "internalType": "uint256",
          "name": "currentBalance",
          "type": "uint256"
        },
        {
          "internalType": "uint256",
          "name": "numPlayers",
          "type": "uint256"
        },
        {
          "internalType": "uint256",
          "name": "lotteryState",
          "type": "uint256"
        }
      ],
      "name": "Lottery__UpkeepNotNeeded",
      "type": "error"
    },
    {
      "inputs": [
        {
          "internalType": "address",
          "name": "have",
          "type": "address"
        },
        {
          "internalType": "address",
          "name": "want",
          "type": "address"
        }
      ],
      "name": "OnlyCoordinatorCanFulfill",
      "type": "error"
    },
    {
      "anonymous": false,
      "inputs": [
        {
          "indexed": true,
          "internalType": "address",
          "name": "player",
          "type": "address"
        }
      ],
      "name": "LotteryEnter",
      "type": "event"
    },
    {
      "anonymous": false,
      "inputs": [
        {
          "indexed": true,
          "internalType": "uint256",
          "name": "requestId",
          "type": "uint256"
        }
      ],
      "name": "RequestedLotteryWinner",
      "type": "event"
    },
    {
      "anonymous": false,
      "inputs": [
        {
          "indexed": true,
          "internalType": "address",
          "name": "winner",
          "type": "address"
        }
      ],
      "name": "WinnerPicked",
      "type": "event"
    },
    {
      "inputs": [
        {
          "internalType": "bytes",
          "name": "",
          "type": "bytes"
        }
      ],
      "name": "checkUpkeep",
      "outputs": [
        {
          "internalType": "bool",
          "name": "upkeepNeeded",
          "type": "bool"
        },
        {
          "internalType": "bytes",
          "name": "",
          "type": "bytes"
        }
      ],
      "stateMutability": "nonpayable",
      "type": "function"
    },
    {
      "inputs": [],
      "name": "enterLottery",
      "outputs": [],
      "stateMutability": "payable",
      "type": "function"
    },
    {
      "inputs": [],
      "name": "getEntranceFee",
      "outputs": [
        {
          "internalType": "uint256",
          "name": "",
          "type": "uint256"
        }
      ],
      "stateMutability": "view",
      "type": "function"
    },
    {
      "inputs": [],
      "name": "getInterval",
      "outputs": [
        {
          "internalType": "uint256",
          "name": "",
          "type": "uint256"
        }
      ],
      "stateMutability": "view",
      "type": "function"
    },
    {
      "inputs": [],
      "name": "getLotteryState",
      "outputs": [
        {
          "internalType": "enum Lottery.LotteryState",
          "name": "",
          "type": "uint8"
        }
      ],
      "stateMutability": "view",
      "type": "function"
    },
    {
      "inputs": [],
      "name": "getNumWords",
      "outputs": [
        {
          "internalType": "uint256",
          "name": "",
          "type": "uint256"
        }
      ],
      "stateMutability": "pure",
      "type": "function"
    },
    {
      "inputs": [],
      "name": "getNumberOfPlayers",
      "outputs": [
        {
          "internalType": "uint256",
          "name": "",
          "type": "uint256"
        }
      ],
      "stateMutability": "view",
      "type": "function"
    },
    {
      "inputs": [
        {
          "internalType": "uint256",
          "name": "index",
          "type": "uint256"
        }
      ],
      "name": "getPlayer",
      "outputs": [
        {
          "internalType": "address",
          "name": "",
          "type": "address"
        }
      ],
      "stateMutability": "view",
      "type": "function"
    },
    {
      "inputs": [],
      "name": "getRecentWinner",
      "outputs": [
        {
          "internalType": "address",
          "name": "",
          "type": "address"
        }
      ],
      "stateMutability": "view",
      "type": "function"
    },
    {
      "inputs": [],
      "name": "getRequestConfirmations",
      "outputs": [
        {
          "internalType": "uint256",
          "name": "",
          "type": "uint256"
        }
      ],
      "stateMutability": "pure",
      "type": "function"
    },
    {
      "inputs": [],
      "name": "getSubId",
      "outputs": [
        {
          "internalType": "uint256",
          "name": "",
          "type": "uint256"
        }
      ],
      "stateMutability": "view",
      "type": "function"
    },
    {
      "inputs": [
        {
          "internalType": "bytes",
          "name": "",
          "type": "bytes"
        }
      ],
      "name": "performUpkeep",
      "outputs": [],
      "stateMutability": "nonpayable",
      "type": "function"
    },
    {
      "inputs": [
        {
          "internalType": "uint256",
          "name": "requestId",
          "type": "uint256"
        },
        {
          "internalType": "uint256[]",
          "name": "randomWords",
          "type": "uint256[]"
        }
      ],
      "name": "rawFulfillRandomWords",
      "outputs": [],
      "stateMutability": "nonpayable",
      "type": "function"
    }
  ],
  "bytecode": "0x6101606040523480156200001257600080fd5b50604051620020433803806200204383398181016040528101906200003891906200039f565b858073ffffffffffffffffffffffffffffffffffffffff1660808173ffffffffffffffffffffffffffffffffffffffff1660601b81525050506200008d67a5c327862daceb3860c01b6200023660201b60201c565b620000a9672a5f566f2818e16260c01b6200023660201b60201c565b8460a08181525050620000cd672d864536436fb34560c01b6200023660201b60201c565b8573ffffffffffffffffffffffffffffffffffffffff1660c08173ffffffffffffffffffffffffffffffffffffffff1660601b81525050620001206779779751eb4a1c8360c01b6200023660201b60201c565b8360e081815250506200014467f026ff08e036ae2b60c01b6200023660201b60201c565b8267ffffffffffffffff166101008167ffffffffffffffff1660c01b81525050620001806728df89cbf41c95b660c01b6200023660201b60201c565b8163ffffffff166101208163ffffffff1660e01b81525050620001b467394f69208462b08e60c01b6200023660201b60201c565b6000600160146101000a81548160ff02191690836001811115620001dd57620001dc6200043b565b5b0217905550620001fe677138e33ceb0dafe660c01b6200023660201b60201c565b426002819055506200022167c44a40f17fba541360c01b6200023660201b60201c565b8061014081815250505050505050506200046a565b50565b600080fd5b600073ffffffffffffffffffffffffffffffffffffffff82169050919050565b60006200026b826200023e565b9050919050565b6200027d816200025e565b81146200028957600080fd5b50565b6000815190506200029d8162000272565b92915050565b6000819050919050565b620002b881620002a3565b8114620002c457600080fd5b50565b600081519050620002d881620002ad565b92915050565b6000819050919050565b620002f381620002de565b8114620002ff57600080fd5b50565b6000815190506200031381620002e8565b92915050565b600067ffffffffffffffff82169050919050565b620003388162000319565b81146200034457600080fd5b50565b60008151905062000358816200032d565b92915050565b600063ffffffff82169050919050565b62000379816200035e565b81146200038557600080fd5b50565b60008151905062000399816200036e565b92915050565b60008060008060008060c08789031215620003bf57620003be62000239565b5b6000620003cf89828a016200028c565b9650506020620003e289828a01620002c7565b9550506040620003f589828a0162000302565b94505060606200040889828a0162000347565b93505060806200041b89828a0162000388565b92505060a06200042e89828a01620002c7565b9150509295509295509295565b7f4e487b7100000000000000000000000000000000000000000000000000000000600052602160045260246000fd5b60805160601c60a05160c05160601c60e0516101005160c01c6101205160e01c61014051611b56620004ed600039600081816109100152610a810152600061062c0152600081816106090152610e04015260006105e8015260006105ac0152600081816103350152610ae301526000818161035b01526103af0152611b566000f3fe6080604052600436106100c25760003560e01c80636b68c03c1161007f578063c1af578511610059578063c1af578514610259578063e55ae4e814610263578063fbc6ba6f146102a0578063fd6673f5146102cb576100c2565b80636b68c03c146101c55780636e04ff0d146101f057806391ad27b41461022e576100c2565b806309bc33a7146100c75780631fe543e3146100f25780634585e33b1461011b578063473f1ddc1461014457806353a2c19a1461016f5780635f1b0fd81461019a575b600080fd5b3480156100d357600080fd5b506100dc6102f6565b6040516100e991906112d7565b60405180910390f35b3480156100fe57600080fd5b506101196004803603810190610114919061148b565b610359565b005b34801561012757600080fd5b50610142600480360381019061013d9190611542565b610419565b005b34801561015057600080fd5b5061015961071c565b60405161016691906115d0565b60405180910390f35b34801561017b57600080fd5b50610184610782565b60405161019191906112d7565b60405180910390f35b3480156101a657600080fd5b506101af6107cd565b6040516101bc91906112d7565b60405180910390f35b3480156101d157600080fd5b506101da610816565b6040516101e79190611662565b60405180910390f35b3480156101fc57600080fd5b5061021760048036038101906102129190611732565b610869565b60405161022592919061181e565b60405180910390f35b34801561023a57600080fd5b50610243610a41565b60405161025091906112d7565b60405180910390f35b610261610aa5565b005b34801561026f57600080fd5b5061028a6004803603810190610285919061184e565b610d40565b60405161029791906115d0565b60405180910390f35b3480156102ac57600080fd5b506102b5610dc4565b6040516102c291906112d7565b60405180910390f35b3480156102d757600080fd5b506102e0610e32565b6040516102ed91906112d7565b60405180910390f35b600061030c676dae29a3c3e4372f60c01b610e7b565b61031f665c2a48c872b2c760c01b610e7b565b61033367a3319f60e7c8b75f60c01b610e7b565b7f0000000000000000000000000000000000000000000000000000000000000000905090565b7f000000000000000000000000000000000000000000000000000000000000000073ffffffffffffffffffffffffffffffffffffffff163373ffffffffffffffffffffffffffffffffffffffff161461040b57337f00000000000000000000000000000000000000000000000000000000000000006040517f1cf993f400000000000000000000000000000000000000000000000000000000815260040161040292919061187b565b60405180910390fd5b6104158282610e7e565b5050565b61042d677cfe2da963f7db7b60c01b610e7b565b610441677c83cb21183d160460c01b610e7b565b610455676417c380449fed3960c01b610e7b565b600061046f60405180602001604052806000815250610869565b5090506104866704a65562b5aab22160c01b610e7b565b61049a67604ba6dd25f1cdaa60c01b610e7b565b8061052e576104b3671f882a416b8a04f660c01b610e7b565b6104c76770914b719dcefa5460c01b610e7b565b47600080549050600160149054906101000a900460ff1660018111156104f0576104ef6115eb565b5b6040517f6e195f25000000000000000000000000000000000000000000000000000000008152600401610525939291906118a4565b60405180910390fd5b6105426740e242f518ff407360c01b610e7b565b6105566726fe962e1790d59f60c01b610e7b565b60018060146101000a81548160ff0219169083600181111561057b5761057a6115eb565b5b0217905550610594677705fc967d01bc5b60c01b610e7b565b6105a867506ed716e6f9700060c01b610e7b565b60007f000000000000000000000000000000000000000000000000000000000000000073ffffffffffffffffffffffffffffffffffffffff16635d3b1d307f00000000000000000000000000000000000000000000000000000000000000007f000000000000000000000000000000000000000000000000000000000000000060037f000000000000000000000000000000000000000000000000000000000000000060016040518663ffffffff1660e01b815260040161066d959493929190611953565b602060405180830381600087803b15801561068757600080fd5b505af115801561069b573d6000803e3d6000fd5b505050506040513d601f19601f820116820180604052508101906106bf91906119bb565b90506106d567255afd2a196785c560c01b610e7b565b6106e9674e6421f4e6c6eb0660c01b610e7b565b807febf56642252004c18a776f30d528e7a0ce8c5db14b6596fb6550f630c8a24c6c60405160405180910390a250505050565b600061073267025c85c5b4a8eddd60c01b610e7b565b610746679a72b8097d8558d960c01b610e7b565b61075a67b079ff9ff611a10d60c01b610e7b565b600160009054906101000a900473ffffffffffffffffffffffffffffffffffffffff16905090565b60006107986738a7cc67f32890d660c01b610e7b565b6107ac67a490effb4c58610760c01b610e7b565b6107c06767a27f195b20285460c01b610e7b565b600163ffffffff16905090565b60006107e3675bc3005f13c95ede60c01b610e7b565b6107f7678aa72f6a0eb4c6ae60c01b610e7b565b61080b67bb00f3e137b63bc860c01b610e7b565b600361ffff16905090565b600061082c6786e95ba13b7dcfab60c01b610e7b565b610840676c3cf0dd04f8a4e560c01b610e7b565b61085467bc7ea5cee32dc89460c01b610e7b565b600160149054906101000a900460ff16905090565b60006060610881675221d649d1f1638260c01b610e7b565b610895670d7568cb7000e49e60c01b610e7b565b6108a967b348a1bc43be157260c01b610e7b565b6000600160149054906101000a900460ff1660018111156108cd576108cc6115eb565b5b600060018111156108e1576108e06115eb565b5b1490506108f867390bfec62a223d9760c01b610e7b565b61090c676f35ae7b597a421360c01b610e7b565b60007f00000000000000000000000000000000000000000000000000000000000000006002544261093d9190611a17565b11905061095467306010f39725030760c01b610e7b565b610968673a2df68e7c037be660c01b610e7b565b60008060008054905011905061098867c8f383ad2d9e351a60c01b610e7b565b61099c67b29a48498741956860c01b610e7b565b600080471190506109b767dd959d32b23eaf0360c01b610e7b565b8380156109c15750825b80156109ca5750815b80156109d35750805b95506109e9679b82f32ffe200d1560c01b610e7b565b6109fd6765d7afe8c71f5a8960c01b610e7b565b856040518060400160405280600381526020017f30783000000000000000000000000000000000000000000000000000000000008152509550955050505050915091565b6000610a5767a691bccdf6a3f38560c01b610e7b565b610a6b6747c739bb89c91a2f60c01b610e7b565b610a7f67de5096d6eb91a9cd60c01b610e7b565b7f0000000000000000000000000000000000000000000000000000000000000000905090565b610ab96725281591ac7bf67460c01b610e7b565b610acd67e5fb04d1503a9fd660c01b610e7b565b610ae167e40f31e919e471a760c01b610e7b565b7f0000000000000000000000000000000000000000000000000000000000000000341015610b6357610b1d673ea39698f0460b4160c01b610e7b565b610b31671c5f59492e051dc860c01b610e7b565b6040517fda4b15cb00000000000000000000000000000000000000000000000000000000815260040160405180910390fd5b610b77676444c6d240bfafba60c01b610e7b565b610b8b6721b45986dc38ed6d60c01b610e7b565b610b9f678a699d70a9c328a960c01b610e7b565b60006001811115610bb357610bb26115eb565b5b600160149054906101000a900460ff166001811115610bd557610bd46115eb565b5b14610c3457610bee67c1054066c486f97260c01b610e7b565b610c02678ee15b46de35e2f860c01b610e7b565b6040517fe76be6fc00000000000000000000000000000000000000000000000000000000815260040160405180910390fd5b610c4867d5923b77ceda086e60c01b610e7b565b610c5c6724d2d99f8f6a466960c01b610e7b565b610c7067575ad3bc87fe30e060c01b610e7b565b6000339080600181540180825580915050600190039060005260206000200160009091909190916101000a81548173ffffffffffffffffffffffffffffffffffffffff021916908373ffffffffffffffffffffffffffffffffffffffff160217905550610ce7673ba5a3a5da2dafc560c01b610e7b565b610cfb67c4583aa61f1157df60c01b610e7b565b3373ffffffffffffffffffffffffffffffffffffffff167f1d64fb5ba9f2548c5b98468d58f25b87b9e866afee0122e92d9fe722bf85076c60405160405180910390a2565b6000610d56676b43bb1d3d73f6cb60c01b610e7b565b610d6a67964651b0c6b5b16360c01b610e7b565b610d7e67fefa9a5d4ae6e37560c01b610e7b565b60008281548110610d9257610d91611a4b565b5b9060005260206000200160009054906101000a900473ffffffffffffffffffffffffffffffffffffffff169050919050565b6000610dda67763c77af8da00dab60c01b610e7b565b610dee674984a6d37b8357cd60c01b610e7b565b610e02676457db41e90af20660c01b610e7b565b7f000000000000000000000000000000000000000000000000000000000000000067ffffffffffffffff16905090565b6000610e4867e2bce22c924f31a760c01b610e7b565b610e5c67bd90bc440fe7508860c01b610e7b565b610e70675ae39eca36cb3bfc60c01b610e7b565b600080549050905090565b50565b610e9267196ed879cda1c2ab60c01b610e7b565b610ea667fac5781f05335a7760c01b610e7b565b610eba679ce39d018d6b3f9960c01b610e7b565b6000808054905082600081518110610ed557610ed4611a4b565b5b6020026020010151610ee79190611aa9565b9050610efd672f45da602e0d323460c01b610e7b565b610f116798870dd0629d82c460c01b610e7b565b6000808281548110610f2657610f25611a4b565b5b9060005260206000200160009054906101000a900473ffffffffffffffffffffffffffffffffffffffff169050610f676739eab81da93a1d2460c01b610e7b565b80600160006101000a81548173ffffffffffffffffffffffffffffffffffffffff021916908373ffffffffffffffffffffffffffffffffffffffff160217905550610fbc67c6fbdab108a8a73d60c01b610e7b565b6000600160146101000a81548160ff02191690836001811115610fe257610fe16115eb565b5b0217905550610ffb67ce97cadf0052d8ae60c01b610e7b565b600067ffffffffffffffff81111561101657611015611348565b5b6040519080825280602002602001820160405280156110445781602001602082028036833780820191505090505b506000908051906020019061105a929190611217565b5061106f67dea598d0acd34fd560c01b610e7b565b4260028190555061108a6782554f1271d593e760c01b610e7b565b61109e676ef40be1dc31994a60c01b610e7b565b60008173ffffffffffffffffffffffffffffffffffffffff16476040516110c490611b0b565b60006040518083038185875af1925050503d8060008114611101576040519150601f19603f3d011682016040523d82523d6000602084013e611106565b606091505b5050905061111e6721683a7f05d43ce160c01b610e7b565b611132671a1a5a0567076b8c60c01b610e7b565b806111915761114b670c57eadb901ff24260c01b610e7b565b61115f6705ec240f7be7ca3260c01b610e7b565b6040517f1c94012000000000000000000000000000000000000000000000000000000000815260040160405180910390fd5b6111a567a5f57536665e1b4860c01b610e7b565b6111b9675d1ed2e08e103d8460c01b610e7b565b6111cd67249ac2249cc8ab0260c01b610e7b565b8173ffffffffffffffffffffffffffffffffffffffff167f5b690ec4a06fe979403046eaeea5b3ce38524683c3001f662c8b5a829632f7df60405160405180910390a25050505050565b828054828255906000526020600020908101928215611290579160200282015b8281111561128f5782518260006101000a81548173ffffffffffffffffffffffffffffffffffffffff021916908373ffffffffffffffffffffffffffffffffffffffff16021790555091602001919060010190611237565b5b50905061129d91906112a1565b5090565b5b808211156112ba5760008160009055506001016112a2565b5090565b6000819050919050565b6112d1816112be565b82525050565b60006020820190506112ec60008301846112c8565b92915050565b6000604051905090565b600080fd5b600080fd5b61130f816112be565b811461131a57600080fd5b50565b60008135905061132c81611306565b92915050565b600080fd5b6000601f19601f8301169050919050565b7f4e487b7100000000000000000000000000000000000000000000000000000000600052604160045260246000fd5b61138082611337565b810181811067ffffffffffffffff8211171561139f5761139e611348565b5b80604052505050565b60006113b26112f2565b90506113be8282611377565b919050565b600067ffffffffffffffff8211156113de576113dd611348565b5b602082029050602081019050919050565b600080fd5b6000611407611402846113c3565b6113a8565b9050808382526020820190506020840283018581111561142a576114296113ef565b5b835b81811015611453578061143f888261131d565b84526020840193505060208101905061142c565b5050509392505050565b600082601f83011261147257611471611332565b5b81356114828482602086016113f4565b91505092915050565b600080604083850312156114a2576114a16112fc565b5b60006114b08582860161131d565b925050602083013567ffffffffffffffff8111156114d1576114d0611301565b5b6114dd8582860161145d565b9150509250929050565b600080fd5b60008083601f84011261150257611501611332565b5b8235905067ffffffffffffffff81111561151f5761151e6114e7565b5b60208301915083600182028301111561153b5761153a6113ef565b5b9250929050565b60008060208385031215611559576115586112fc565b5b600083013567ffffffffffffffff81111561157757611576611301565b5b611583858286016114ec565b92509250509250929050565b600073ffffffffffffffffffffffffffffffffffffffff82169050919050565b60006115ba8261158f565b9050919050565b6115ca816115af565b82525050565b60006020820190506115e560008301846115c1565b92915050565b7f4e487b7100000000000000000000000000000000000000000000000000000000600052602160045260246000fd5b6002811061162b5761162a6115eb565b5b50565b600081905061163c8261161a565b919050565b600061164c8261162e565b9050919050565b61165c81611641565b82525050565b60006020820190506116776000830184611653565b92915050565b600080fd5b600067ffffffffffffffff82111561169d5761169c611348565b5b6116a682611337565b9050602081019050919050565b82818337600083830152505050565b60006116d56116d084611682565b6113a8565b9050828152602081018484840111156116f1576116f061167d565b5b6116fc8482856116b3565b509392505050565b600082601f83011261171957611718611332565b5b81356117298482602086016116c2565b91505092915050565b600060208284031215611748576117476112fc565b5b600082013567ffffffffffffffff81111561176657611765611301565b5b61177284828501611704565b91505092915050565b60008115159050919050565b6117908161177b565b82525050565b600081519050919050565b600082825260208201905092915050565b60005b838110156117d05780820151818401526020810190506117b5565b838111156117df576000848401525b50505050565b60006117f082611796565b6117fa81856117a1565b935061180a8185602086016117b2565b61181381611337565b840191505092915050565b60006040820190506118336000830185611787565b818103602083015261184581846117e5565b90509392505050565b600060208284031215611864576118636112fc565b5b60006118728482850161131d565b91505092915050565b600060408201905061189060008301856115c1565b61189d60208301846115c1565b9392505050565b60006060820190506118b960008301866112c8565b6118c660208301856112c8565b6118d360408301846112c8565b949350505050565b6000819050919050565b6118ee816118db565b82525050565b600067ffffffffffffffff82169050919050565b611911816118f4565b82525050565b600061ffff82169050919050565b61192e81611917565b82525050565b600063ffffffff82169050919050565b61194d81611934565b82525050565b600060a08201905061196860008301886118e5565b6119756020830187611908565b6119826040830186611925565b61198f6060830185611944565b61199c6080830184611944565b9695505050505050565b6000815190506119b581611306565b92915050565b6000602082840312156119d1576119d06112fc565b5b60006119df848285016119a6565b91505092915050565b7f4e487b7100000000000000000000000000000000000000000000000000000000600052601160045260246000fd5b6000611a22826112be565b9150611a2d836112be565b925082821015611a4057611a3f6119e8565b5b828203905092915050565b7f4e487b7100000000000000000000000000000000000000000000000000000000600052603260045260246000fd5b7f4e487b7100000000000000000000000000000000000000000000000000000000600052601260045260246000fd5b6000611ab4826112be565b9150611abf836112be565b925082611acf57611ace611a7a565b5b828206905092915050565b600081905092915050565b50565b6000611af5600083611ada565b9150611b0082611ae5565b600082019050919050565b6000611b1682611ae8565b915081905091905056fea2646970667358221220d4dc816efccd0354462a99685429a4213ebb50873b1447f3bf6d729185d0acec64736f6c63430008080033",
  "linkReferences": {},
  "deployedLinkReferences": {}
}