{
  "_format": "hh-sol-artifact-1",
  "contractName": "Lottery",
  "sourceName": "contracts/lottery.sol",
  "abi": [
    {
      "inputs": [
        {
          "internalType": "address",
          "name": "vrfCoordinatorV2",
          "type": "address"
        },
        {
          "internalType": "uint256",
          "name": "_entraceFee",
          "type": "uint256"
        },
        {
          "internalType": "bytes32",
          "name": "gasLane",
          "type": "bytes32"
        },
        {
          "internalType": "uint64",
          "name": "subscriptionId",
          "type": "uint64"
        },
        {
          "internalType": "uint32",
          "name": "callbackGasLimit",
          "type": "uint32"
        },
        {
          "internalType": "uint256",
          "name": "interval",
          "type": "uint256"
        }
      ],
      "stateMutability": "nonpayable",
      "type": "constructor"
    },
    {
      "inputs": [],
      "name": "Lottery__InsufficentETHEntered",
      "type": "error"
    },
    {
      "inputs": [],
      "name": "Lottery__NotOpen",
      "type": "error"
    },
    {
      "inputs": [],
      "name": "Lottery__TransferFailed",
      "type": "error"
    },
    {
      "inputs": [
        {
          "internalType": "uint256",
          "name": "currentBalance",
          "type": "uint256"
        },
        {
          "internalType": "uint256",
          "name": "numPlayers",
          "type": "uint256"
        },
        {
          "internalType": "uint256",
          "name": "lotteryState",
          "type": "uint256"
        }
      ],
      "name": "Lottery__UpkeepNotNeeded",
      "type": "error"
    },
    {
      "inputs": [
        {
          "internalType": "address",
          "name": "have",
          "type": "address"
        },
        {
          "internalType": "address",
          "name": "want",
          "type": "address"
        }
      ],
      "name": "OnlyCoordinatorCanFulfill",
      "type": "error"
    },
    {
      "anonymous": false,
      "inputs": [
        {
          "indexed": true,
          "internalType": "address",
          "name": "player",
          "type": "address"
        }
      ],
      "name": "LotteryEnter",
      "type": "event"
    },
    {
      "anonymous": false,
      "inputs": [
        {
          "indexed": true,
          "internalType": "uint256",
          "name": "requestId",
          "type": "uint256"
        }
      ],
      "name": "RequestedLotteryWinner",
      "type": "event"
    },
    {
      "anonymous": false,
      "inputs": [
        {
          "indexed": true,
          "internalType": "address",
          "name": "winner",
          "type": "address"
        }
      ],
      "name": "WinnerPicked",
      "type": "event"
    },
    {
      "inputs": [
        {
          "internalType": "bytes",
          "name": "",
          "type": "bytes"
        }
      ],
      "name": "checkUpkeep",
      "outputs": [
        {
          "internalType": "bool",
          "name": "upkeepNeeded",
          "type": "bool"
        },
        {
          "internalType": "bytes",
          "name": "",
          "type": "bytes"
        }
      ],
      "stateMutability": "nonpayable",
      "type": "function"
    },
    {
      "inputs": [],
      "name": "enterLottery",
      "outputs": [],
      "stateMutability": "payable",
      "type": "function"
    },
    {
      "inputs": [],
      "name": "getEntranceFee",
      "outputs": [
        {
          "internalType": "uint256",
          "name": "",
          "type": "uint256"
        }
      ],
      "stateMutability": "view",
      "type": "function"
    },
    {
      "inputs": [],
      "name": "getInterval",
      "outputs": [
        {
          "internalType": "uint256",
          "name": "",
          "type": "uint256"
        }
      ],
      "stateMutability": "view",
      "type": "function"
    },
    {
      "inputs": [],
      "name": "getLatestTimeStamp",
      "outputs": [
        {
          "internalType": "uint256",
          "name": "",
          "type": "uint256"
        }
      ],
      "stateMutability": "view",
      "type": "function"
    },
    {
      "inputs": [],
      "name": "getLotteryState",
      "outputs": [
        {
          "internalType": "enum Lottery.LotteryState",
          "name": "",
          "type": "uint8"
        }
      ],
      "stateMutability": "view",
      "type": "function"
    },
    {
      "inputs": [],
      "name": "getNumWords",
      "outputs": [
        {
          "internalType": "uint256",
          "name": "",
          "type": "uint256"
        }
      ],
      "stateMutability": "pure",
      "type": "function"
    },
    {
      "inputs": [],
      "name": "getNumberOfPlayers",
      "outputs": [
        {
          "internalType": "uint256",
          "name": "",
          "type": "uint256"
        }
      ],
      "stateMutability": "view",
      "type": "function"
    },
    {
      "inputs": [
        {
          "internalType": "uint256",
          "name": "index",
          "type": "uint256"
        }
      ],
      "name": "getPlayer",
      "outputs": [
        {
          "internalType": "address",
          "name": "",
          "type": "address"
        }
      ],
      "stateMutability": "view",
      "type": "function"
    },
    {
      "inputs": [],
      "name": "getRecentWinner",
      "outputs": [
        {
          "internalType": "address",
          "name": "",
          "type": "address"
        }
      ],
      "stateMutability": "view",
      "type": "function"
    },
    {
      "inputs": [],
      "name": "getRequestConfirmations",
      "outputs": [
        {
          "internalType": "uint256",
          "name": "",
          "type": "uint256"
        }
      ],
      "stateMutability": "pure",
      "type": "function"
    },
    {
      "inputs": [],
      "name": "getSubId",
      "outputs": [
        {
          "internalType": "uint256",
          "name": "",
          "type": "uint256"
        }
      ],
      "stateMutability": "view",
      "type": "function"
    },
    {
      "inputs": [
        {
          "internalType": "bytes",
          "name": "",
          "type": "bytes"
        }
      ],
      "name": "performUpkeep",
      "outputs": [],
      "stateMutability": "nonpayable",
      "type": "function"
    },
    {
      "inputs": [
        {
          "internalType": "uint256",
          "name": "requestId",
          "type": "uint256"
        },
        {
          "internalType": "uint256[]",
          "name": "randomWords",
          "type": "uint256[]"
        }
      ],
      "name": "rawFulfillRandomWords",
      "outputs": [],
      "stateMutability": "nonpayable",
      "type": "function"
    }
  ],
  "bytecode": "0x6101606040523480156200001257600080fd5b50604051620020cf380380620020cf83398181016040528101906200003891906200039f565b858073ffffffffffffffffffffffffffffffffffffffff1660808173ffffffffffffffffffffffffffffffffffffffff1660601b81525050506200008d6774fdce985d7e7e2660c01b6200023660201b60201c565b620000a96787c61e6355b6329760c01b6200023660201b60201c565b8460a08181525050620000cd674323bf923c0b262660c01b6200023660201b60201c565b8573ffffffffffffffffffffffffffffffffffffffff1660c08173ffffffffffffffffffffffffffffffffffffffff1660601b815250506200012067a5c327862daceb3860c01b6200023660201b60201c565b8360e0818152505062000144672a5f566f2818e16260c01b6200023660201b60201c565b8267ffffffffffffffff166101008167ffffffffffffffff1660c01b8152505062000180672d864536436fb34560c01b6200023660201b60201c565b8163ffffffff166101208163ffffffff1660e01b81525050620001b46779779751eb4a1c8360c01b6200023660201b60201c565b6000600160146101000a81548160ff02191690836001811115620001dd57620001dc6200043b565b5b0217905550620001fe67f026ff08e036ae2b60c01b6200023660201b60201c565b42600281905550620002216728df89cbf41c95b660c01b6200023660201b60201c565b8061014081815250505050505050506200046a565b50565b600080fd5b600073ffffffffffffffffffffffffffffffffffffffff82169050919050565b60006200026b826200023e565b9050919050565b6200027d816200025e565b81146200028957600080fd5b50565b6000815190506200029d8162000272565b92915050565b6000819050919050565b620002b881620002a3565b8114620002c457600080fd5b50565b600081519050620002d881620002ad565b92915050565b6000819050919050565b620002f381620002de565b8114620002ff57600080fd5b50565b6000815190506200031381620002e8565b92915050565b600067ffffffffffffffff82169050919050565b620003388162000319565b81146200034457600080fd5b50565b60008151905062000358816200032d565b92915050565b600063ffffffff82169050919050565b62000379816200035e565b81146200038557600080fd5b50565b60008151905062000399816200036e565b92915050565b60008060008060008060c08789031215620003bf57620003be62000239565b5b6000620003cf89828a016200028c565b9650506020620003e289828a01620002c7565b9550506040620003f589828a0162000302565b94505060606200040889828a0162000347565b93505060806200041b89828a0162000388565b92505060a06200042e89828a01620002c7565b9150509295509295509295565b7f4e487b7100000000000000000000000000000000000000000000000000000000600052602160045260246000fd5b60805160601c60a05160c05160601c60e0516101005160c01c6101205160e01c61014051611be2620004ed6000396000818161099d0152610b0e015260006106b90152600081816106960152610e90015260006106750152600061063901526000818161037c0152610b700152600081816103a201526103f60152611be26000f3fe6080604052600436106100dd5760003560e01c80636b68c03c1161007f578063c1af578511610059578063c1af57851461029f578063e55ae4e8146102a9578063fbc6ba6f146102e6578063fd6673f514610311576100dd565b80636b68c03c1461020b5780636e04ff0d1461023657806391ad27b414610274576100dd565b80634585e33b116100bb5780634585e33b14610161578063473f1ddc1461018a57806353a2c19a146101b55780635f1b0fd8146101e0576100dd565b806309bc33a7146100e25780631fe543e31461010d578063320229eb14610136575b600080fd5b3480156100ee57600080fd5b506100f761033c565b6040516101049190611363565b60405180910390f35b34801561011957600080fd5b50610134600480360381019061012f9190611517565b6103a0565b005b34801561014257600080fd5b5061014b610460565b6040516101589190611363565b60405180910390f35b34801561016d57600080fd5b50610188600480360381019061018391906115ce565b6104a6565b005b34801561019657600080fd5b5061019f6107a9565b6040516101ac919061165c565b60405180910390f35b3480156101c157600080fd5b506101ca61080f565b6040516101d79190611363565b60405180910390f35b3480156101ec57600080fd5b506101f561085a565b6040516102029190611363565b60405180910390f35b34801561021757600080fd5b506102206108a3565b60405161022d91906116ee565b60405180910390f35b34801561024257600080fd5b5061025d600480360381019061025891906117be565b6108f6565b60405161026b9291906118aa565b60405180910390f35b34801561028057600080fd5b50610289610ace565b6040516102969190611363565b60405180910390f35b6102a7610b32565b005b3480156102b557600080fd5b506102d060048036038101906102cb91906118da565b610dcd565b6040516102dd919061165c565b60405180910390f35b3480156102f257600080fd5b506102fb610e50565b6040516103089190611363565b60405180910390f35b34801561031d57600080fd5b50610326610ebe565b6040516103339190611363565b60405180910390f35b600061035267a5f57536665e1b4860c01b610f07565b610366675d1ed2e08e103d8460c01b610f07565b61037a67249ac2249cc8ab0260c01b610f07565b7f0000000000000000000000000000000000000000000000000000000000000000905090565b7f000000000000000000000000000000000000000000000000000000000000000073ffffffffffffffffffffffffffffffffffffffff163373ffffffffffffffffffffffffffffffffffffffff161461045257337f00000000000000000000000000000000000000000000000000000000000000006040517f1cf993f4000000000000000000000000000000000000000000000000000000008152600401610449929190611907565b60405180910390fd5b61045c8282610f0a565b5050565b600061047667e2bce22c924f31a760c01b610f07565b61048a67bd90bc440fe7508860c01b610f07565b61049e675ae39eca36cb3bfc60c01b610f07565b600254905090565b6104ba67dd959d32b23eaf0360c01b610f07565b6104ce679b82f32ffe200d1560c01b610f07565b6104e26765d7afe8c71f5a8960c01b610f07565b60006104fc604051806020016040528060008152506108f6565b509050610513677cfe2da963f7db7b60c01b610f07565b610527677c83cb21183d160460c01b610f07565b806105bb57610540676417c380449fed3960c01b610f07565b6105546704a65562b5aab22160c01b610f07565b47600080549050600160149054906101000a900460ff16600181111561057d5761057c611677565b5b6040517f6e195f250000000000000000000000000000000000000000000000000000000081526004016105b293929190611930565b60405180910390fd5b6105cf67604ba6dd25f1cdaa60c01b610f07565b6105e3671f882a416b8a04f660c01b610f07565b60018060146101000a81548160ff0219169083600181111561060857610607611677565b5b02179055506106216770914b719dcefa5460c01b610f07565b6106356740e242f518ff407360c01b610f07565b60007f000000000000000000000000000000000000000000000000000000000000000073ffffffffffffffffffffffffffffffffffffffff16635d3b1d307f00000000000000000000000000000000000000000000000000000000000000007f000000000000000000000000000000000000000000000000000000000000000060037f000000000000000000000000000000000000000000000000000000000000000060016040518663ffffffff1660e01b81526004016106fa9594939291906119df565b602060405180830381600087803b15801561071457600080fd5b505af1158015610728573d6000803e3d6000fd5b505050506040513d601f19601f8201168201806040525081019061074c9190611a47565b90506107626726fe962e1790d59f60c01b610f07565b610776677705fc967d01bc5b60c01b610f07565b807febf56642252004c18a776f30d528e7a0ce8c5db14b6596fb6550f630c8a24c6c60405160405180910390a250505050565b60006107bf676b43bb1d3d73f6cb60c01b610f07565b6107d367964651b0c6b5b16360c01b610f07565b6107e767fefa9a5d4ae6e37560c01b610f07565b600160009054906101000a900473ffffffffffffffffffffffffffffffffffffffff16905090565b60006108256786e95ba13b7dcfab60c01b610f07565b610839676c3cf0dd04f8a4e560c01b610f07565b61084d67bc7ea5cee32dc89460c01b610f07565b600163ffffffff16905090565b6000610870675bc3005f13c95ede60c01b610f07565b610884678aa72f6a0eb4c6ae60c01b610f07565b61089867bb00f3e137b63bc860c01b610f07565b600361ffff16905090565b60006108b967025c85c5b4a8eddd60c01b610f07565b6108cd679a72b8097d8558d960c01b610f07565b6108e167b079ff9ff611a10d60c01b610f07565b600160149054906101000a900460ff16905090565b6000606061090e67575ad3bc87fe30e060c01b610f07565b610922673ba5a3a5da2dafc560c01b610f07565b61093667c4583aa61f1157df60c01b610f07565b6000600160149054906101000a900460ff16600181111561095a57610959611677565b5b6000600181111561096e5761096d611677565b5b149050610985675221d649d1f1638260c01b610f07565b610999670d7568cb7000e49e60c01b610f07565b60007f0000000000000000000000000000000000000000000000000000000000000000600254426109ca9190611aa3565b1190506109e167b348a1bc43be157260c01b610f07565b6109f567390bfec62a223d9760c01b610f07565b600080600080549050119050610a15676f35ae7b597a421360c01b610f07565b610a2967306010f39725030760c01b610f07565b60008047119050610a44673a2df68e7c037be660c01b610f07565b838015610a4e5750825b8015610a575750815b8015610a605750805b9550610a7667c8f383ad2d9e351a60c01b610f07565b610a8a67b29a48498741956860c01b610f07565b856040518060400160405280600381526020017f30783000000000000000000000000000000000000000000000000000000000008152509550955050505050915091565b6000610ae467a691bccdf6a3f38560c01b610f07565b610af86747c739bb89c91a2f60c01b610f07565b610b0c67de5096d6eb91a9cd60c01b610f07565b7f0000000000000000000000000000000000000000000000000000000000000000905090565b610b4667394f69208462b08e60c01b610f07565b610b5a677138e33ceb0dafe660c01b610f07565b610b6e67c44a40f17fba541360c01b610f07565b7f0000000000000000000000000000000000000000000000000000000000000000341015610bf057610baa6725281591ac7bf67460c01b610f07565b610bbe67e5fb04d1503a9fd660c01b610f07565b6040517fda4b15cb00000000000000000000000000000000000000000000000000000000815260040160405180910390fd5b610c0467e40f31e919e471a760c01b610f07565b610c18673ea39698f0460b4160c01b610f07565b610c2c671c5f59492e051dc860c01b610f07565b60006001811115610c4057610c3f611677565b5b600160149054906101000a900460ff166001811115610c6257610c61611677565b5b14610cc157610c7b676444c6d240bfafba60c01b610f07565b610c8f6721b45986dc38ed6d60c01b610f07565b6040517fe76be6fc00000000000000000000000000000000000000000000000000000000815260040160405180910390fd5b610cd5678a699d70a9c328a960c01b610f07565b610ce967c1054066c486f97260c01b610f07565b610cfd678ee15b46de35e2f860c01b610f07565b6000339080600181540180825580915050600190039060005260206000200160009091909190916101000a81548173ffffffffffffffffffffffffffffffffffffffff021916908373ffffffffffffffffffffffffffffffffffffffff160217905550610d7467d5923b77ceda086e60c01b610f07565b610d886724d2d99f8f6a466960c01b610f07565b3373ffffffffffffffffffffffffffffffffffffffff167f1d64fb5ba9f2548c5b98468d58f25b87b9e866afee0122e92d9fe722bf85076c60405160405180910390a2565b6000610de3676dae29a3c3e4372f60c01b610f07565b610df6665c2a48c872b2c760c01b610f07565b610e0a67a3319f60e7c8b75f60c01b610f07565b60008281548110610e1e57610e1d611ad7565b5b9060005260206000200160009054906101000a900473ffffffffffffffffffffffffffffffffffffffff169050919050565b6000610e6667763c77af8da00dab60c01b610f07565b610e7a674984a6d37b8357cd60c01b610f07565b610e8e676457db41e90af20660c01b610f07565b7f000000000000000000000000000000000000000000000000000000000000000067ffffffffffffffff16905090565b6000610ed46738a7cc67f32890d660c01b610f07565b610ee867a490effb4c58610760c01b610f07565b610efc6767a27f195b20285460c01b610f07565b600080549050905090565b50565b610f1e67506ed716e6f9700060c01b610f07565b610f3267255afd2a196785c560c01b610f07565b610f46674e6421f4e6c6eb0660c01b610f07565b6000808054905082600081518110610f6157610f60611ad7565b5b6020026020010151610f739190611b35565b9050610f8967196ed879cda1c2ab60c01b610f07565b610f9d67fac5781f05335a7760c01b610f07565b6000808281548110610fb257610fb1611ad7565b5b9060005260206000200160009054906101000a900473ffffffffffffffffffffffffffffffffffffffff169050610ff3679ce39d018d6b3f9960c01b610f07565b80600160006101000a81548173ffffffffffffffffffffffffffffffffffffffff021916908373ffffffffffffffffffffffffffffffffffffffff160217905550611048672f45da602e0d323460c01b610f07565b6000600160146101000a81548160ff0219169083600181111561106e5761106d611677565b5b02179055506110876798870dd0629d82c460c01b610f07565b600067ffffffffffffffff8111156110a2576110a16113d4565b5b6040519080825280602002602001820160405280156110d05781602001602082028036833780820191505090505b50600090805190602001906110e69291906112a3565b506110fb6739eab81da93a1d2460c01b610f07565b4260028190555061111667c6fbdab108a8a73d60c01b610f07565b61112a67ce97cadf0052d8ae60c01b610f07565b60008173ffffffffffffffffffffffffffffffffffffffff164760405161115090611b97565b60006040518083038185875af1925050503d806000811461118d576040519150601f19603f3d011682016040523d82523d6000602084013e611192565b606091505b505090506111aa67dea598d0acd34fd560c01b610f07565b6111be6782554f1271d593e760c01b610f07565b8061121d576111d7676ef40be1dc31994a60c01b610f07565b6111eb6721683a7f05d43ce160c01b610f07565b6040517f1c94012000000000000000000000000000000000000000000000000000000000815260040160405180910390fd5b611231671a1a5a0567076b8c60c01b610f07565b611245670c57eadb901ff24260c01b610f07565b6112596705ec240f7be7ca3260c01b610f07565b8173ffffffffffffffffffffffffffffffffffffffff167f5b690ec4a06fe979403046eaeea5b3ce38524683c3001f662c8b5a829632f7df60405160405180910390a25050505050565b82805482825590600052602060002090810192821561131c579160200282015b8281111561131b5782518260006101000a81548173ffffffffffffffffffffffffffffffffffffffff021916908373ffffffffffffffffffffffffffffffffffffffff160217905550916020019190600101906112c3565b5b509050611329919061132d565b5090565b5b8082111561134657600081600090555060010161132e565b5090565b6000819050919050565b61135d8161134a565b82525050565b60006020820190506113786000830184611354565b92915050565b6000604051905090565b600080fd5b600080fd5b61139b8161134a565b81146113a657600080fd5b50565b6000813590506113b881611392565b92915050565b600080fd5b6000601f19601f8301169050919050565b7f4e487b7100000000000000000000000000000000000000000000000000000000600052604160045260246000fd5b61140c826113c3565b810181811067ffffffffffffffff8211171561142b5761142a6113d4565b5b80604052505050565b600061143e61137e565b905061144a8282611403565b919050565b600067ffffffffffffffff82111561146a576114696113d4565b5b602082029050602081019050919050565b600080fd5b600061149361148e8461144f565b611434565b905080838252602082019050602084028301858111156114b6576114b561147b565b5b835b818110156114df57806114cb88826113a9565b8452602084019350506020810190506114b8565b5050509392505050565b600082601f8301126114fe576114fd6113be565b5b813561150e848260208601611480565b91505092915050565b6000806040838503121561152e5761152d611388565b5b600061153c858286016113a9565b925050602083013567ffffffffffffffff81111561155d5761155c61138d565b5b611569858286016114e9565b9150509250929050565b600080fd5b60008083601f84011261158e5761158d6113be565b5b8235905067ffffffffffffffff8111156115ab576115aa611573565b5b6020830191508360018202830111156115c7576115c661147b565b5b9250929050565b600080602083850312156115e5576115e4611388565b5b600083013567ffffffffffffffff8111156116035761160261138d565b5b61160f85828601611578565b92509250509250929050565b600073ffffffffffffffffffffffffffffffffffffffff82169050919050565b60006116468261161b565b9050919050565b6116568161163b565b82525050565b6000602082019050611671600083018461164d565b92915050565b7f4e487b7100000000000000000000000000000000000000000000000000000000600052602160045260246000fd5b600281106116b7576116b6611677565b5b50565b60008190506116c8826116a6565b919050565b60006116d8826116ba565b9050919050565b6116e8816116cd565b82525050565b600060208201905061170360008301846116df565b92915050565b600080fd5b600067ffffffffffffffff821115611729576117286113d4565b5b611732826113c3565b9050602081019050919050565b82818337600083830152505050565b600061176161175c8461170e565b611434565b90508281526020810184848401111561177d5761177c611709565b5b61178884828561173f565b509392505050565b600082601f8301126117a5576117a46113be565b5b81356117b584826020860161174e565b91505092915050565b6000602082840312156117d4576117d3611388565b5b600082013567ffffffffffffffff8111156117f2576117f161138d565b5b6117fe84828501611790565b91505092915050565b60008115159050919050565b61181c81611807565b82525050565b600081519050919050565b600082825260208201905092915050565b60005b8381101561185c578082015181840152602081019050611841565b8381111561186b576000848401525b50505050565b600061187c82611822565b611886818561182d565b935061189681856020860161183e565b61189f816113c3565b840191505092915050565b60006040820190506118bf6000830185611813565b81810360208301526118d18184611871565b90509392505050565b6000602082840312156118f0576118ef611388565b5b60006118fe848285016113a9565b91505092915050565b600060408201905061191c600083018561164d565b611929602083018461164d565b9392505050565b60006060820190506119456000830186611354565b6119526020830185611354565b61195f6040830184611354565b949350505050565b6000819050919050565b61197a81611967565b82525050565b600067ffffffffffffffff82169050919050565b61199d81611980565b82525050565b600061ffff82169050919050565b6119ba816119a3565b82525050565b600063ffffffff82169050919050565b6119d9816119c0565b82525050565b600060a0820190506119f46000830188611971565b611a016020830187611994565b611a0e60408301866119b1565b611a1b60608301856119d0565b611a2860808301846119d0565b9695505050505050565b600081519050611a4181611392565b92915050565b600060208284031215611a5d57611a5c611388565b5b6000611a6b84828501611a32565b91505092915050565b7f4e487b7100000000000000000000000000000000000000000000000000000000600052601160045260246000fd5b6000611aae8261134a565b9150611ab98361134a565b925082821015611acc57611acb611a74565b5b828203905092915050565b7f4e487b7100000000000000000000000000000000000000000000000000000000600052603260045260246000fd5b7f4e487b7100000000000000000000000000000000000000000000000000000000600052601260045260246000fd5b6000611b408261134a565b9150611b4b8361134a565b925082611b5b57611b5a611b06565b5b828206905092915050565b600081905092915050565b50565b6000611b81600083611b66565b9150611b8c82611b71565b600082019050919050565b6000611ba282611b74565b915081905091905056fea26469706673582212202033374900dbc72fabe02cacf96bc7db7fac85f9ccbb0d716d8f48b957b16fc564736f6c63430008080033",
  "linkReferences": {},
  "deployedLinkReferences": {}
}