{
  "_format": "hh-sol-artifact-1",
  "contractName": "Lottery",
  "sourceName": "contracts/lottery.sol",
  "abi": [
    {
      "inputs": [
        {
          "internalType": "address",
          "name": "vrfCoordinatorV2",
          "type": "address"
        },
        {
          "internalType": "uint256",
          "name": "_entraceFee",
          "type": "uint256"
        },
        {
          "internalType": "bytes32",
          "name": "gasLane",
          "type": "bytes32"
        },
        {
          "internalType": "uint64",
          "name": "subscriptionId",
          "type": "uint64"
        },
        {
          "internalType": "uint32",
          "name": "callbackGasLimit",
          "type": "uint32"
        },
        {
          "internalType": "uint256",
          "name": "interval",
          "type": "uint256"
        }
      ],
      "stateMutability": "nonpayable",
      "type": "constructor"
    },
    {
      "inputs": [],
      "name": "Lottery__InsufficentETHEntered",
      "type": "error"
    },
    {
      "inputs": [],
      "name": "Lottery__NotOpen",
      "type": "error"
    },
    {
      "inputs": [],
      "name": "Lottery__TransferFailed",
      "type": "error"
    },
    {
      "inputs": [
        {
          "internalType": "uint256",
          "name": "currentBalance",
          "type": "uint256"
        },
        {
          "internalType": "uint256",
          "name": "numPlayers",
          "type": "uint256"
        },
        {
          "internalType": "uint256",
          "name": "lotteryState",
          "type": "uint256"
        }
      ],
      "name": "Lottery__UpkeepNotNeeded",
      "type": "error"
    },
    {
      "inputs": [
        {
          "internalType": "address",
          "name": "have",
          "type": "address"
        },
        {
          "internalType": "address",
          "name": "want",
          "type": "address"
        }
      ],
      "name": "OnlyCoordinatorCanFulfill",
      "type": "error"
    },
    {
      "anonymous": false,
      "inputs": [
        {
          "indexed": true,
          "internalType": "address",
          "name": "player",
          "type": "address"
        }
      ],
      "name": "LotteryEnter",
      "type": "event"
    },
    {
      "anonymous": false,
      "inputs": [
        {
          "indexed": true,
          "internalType": "uint256",
          "name": "requestId",
          "type": "uint256"
        }
      ],
      "name": "RequestedLotteryWinner",
      "type": "event"
    },
    {
      "anonymous": false,
      "inputs": [
        {
          "indexed": true,
          "internalType": "address",
          "name": "winner",
          "type": "address"
        }
      ],
      "name": "WinnerPicked",
      "type": "event"
    },
    {
      "inputs": [
        {
          "internalType": "bytes",
          "name": "",
          "type": "bytes"
        }
      ],
      "name": "checkUpkeep",
      "outputs": [
        {
          "internalType": "bool",
          "name": "upkeepNeeded",
          "type": "bool"
        },
        {
          "internalType": "bytes",
          "name": "",
          "type": "bytes"
        }
      ],
      "stateMutability": "nonpayable",
      "type": "function"
    },
    {
      "inputs": [],
      "name": "enterLottery",
      "outputs": [],
      "stateMutability": "payable",
      "type": "function"
    },
    {
      "inputs": [],
      "name": "getEntranceFee",
      "outputs": [
        {
          "internalType": "uint256",
          "name": "",
          "type": "uint256"
        }
      ],
      "stateMutability": "view",
      "type": "function"
    },
    {
      "inputs": [],
      "name": "getInterval",
      "outputs": [
        {
          "internalType": "uint256",
          "name": "",
          "type": "uint256"
        }
      ],
      "stateMutability": "view",
      "type": "function"
    },
    {
      "inputs": [],
      "name": "getLotteryState",
      "outputs": [
        {
          "internalType": "enum Lottery.LotteryState",
          "name": "",
          "type": "uint8"
        }
      ],
      "stateMutability": "view",
      "type": "function"
    },
    {
      "inputs": [],
      "name": "getNumWords",
      "outputs": [
        {
          "internalType": "uint256",
          "name": "",
          "type": "uint256"
        }
      ],
      "stateMutability": "pure",
      "type": "function"
    },
    {
      "inputs": [],
      "name": "getNumberOfPlayers",
      "outputs": [
        {
          "internalType": "uint256",
          "name": "",
          "type": "uint256"
        }
      ],
      "stateMutability": "view",
      "type": "function"
    },
    {
      "inputs": [
        {
          "internalType": "uint256",
          "name": "index",
          "type": "uint256"
        }
      ],
      "name": "getPlayer",
      "outputs": [
        {
          "internalType": "address",
          "name": "",
          "type": "address"
        }
      ],
      "stateMutability": "view",
      "type": "function"
    },
    {
      "inputs": [],
      "name": "getRecentWinner",
      "outputs": [
        {
          "internalType": "address",
          "name": "",
          "type": "address"
        }
      ],
      "stateMutability": "view",
      "type": "function"
    },
    {
      "inputs": [],
      "name": "getRequestConfirmations",
      "outputs": [
        {
          "internalType": "uint256",
          "name": "",
          "type": "uint256"
        }
      ],
      "stateMutability": "pure",
      "type": "function"
    },
    {
      "inputs": [
        {
          "internalType": "bytes",
          "name": "",
          "type": "bytes"
        }
      ],
      "name": "performUpkeep",
      "outputs": [],
      "stateMutability": "nonpayable",
      "type": "function"
    },
    {
      "inputs": [
        {
          "internalType": "uint256",
          "name": "requestId",
          "type": "uint256"
        },
        {
          "internalType": "uint256[]",
          "name": "randomWords",
          "type": "uint256[]"
        }
      ],
      "name": "rawFulfillRandomWords",
      "outputs": [],
      "stateMutability": "nonpayable",
      "type": "function"
    }
  ],
  "bytecode": "0x6101606040523480156200001257600080fd5b5060405162001f8838038062001f8883398181016040528101906200003891906200039f565b858073ffffffffffffffffffffffffffffffffffffffff1660808173ffffffffffffffffffffffffffffffffffffffff1660601b81525050506200008d6779779751eb4a1c8360c01b6200023660201b60201c565b620000a967f026ff08e036ae2b60c01b6200023660201b60201c565b8460a08181525050620000cd6728df89cbf41c95b660c01b6200023660201b60201c565b8573ffffffffffffffffffffffffffffffffffffffff1660c08173ffffffffffffffffffffffffffffffffffffffff1660601b815250506200012067394f69208462b08e60c01b6200023660201b60201c565b8360e0818152505062000144677138e33ceb0dafe660c01b6200023660201b60201c565b8267ffffffffffffffff166101008167ffffffffffffffff1660c01b815250506200018067c44a40f17fba541360c01b6200023660201b60201c565b8163ffffffff166101208163ffffffff1660e01b81525050620001b46725281591ac7bf67460c01b6200023660201b60201c565b6000600160146101000a81548160ff02191690836001811115620001dd57620001dc6200043b565b5b0217905550620001fe67e5fb04d1503a9fd660c01b6200023660201b60201c565b426002819055506200022167e40f31e919e471a760c01b6200023660201b60201c565b8061014081815250505050505050506200046a565b50565b600080fd5b600073ffffffffffffffffffffffffffffffffffffffff82169050919050565b60006200026b826200023e565b9050919050565b6200027d816200025e565b81146200028957600080fd5b50565b6000815190506200029d8162000272565b92915050565b6000819050919050565b620002b881620002a3565b8114620002c457600080fd5b50565b600081519050620002d881620002ad565b92915050565b6000819050919050565b620002f381620002de565b8114620002ff57600080fd5b50565b6000815190506200031381620002e8565b92915050565b600067ffffffffffffffff82169050919050565b620003388162000319565b81146200034457600080fd5b50565b60008151905062000358816200032d565b92915050565b600063ffffffff82169050919050565b62000379816200035e565b81146200038557600080fd5b50565b60008151905062000399816200036e565b92915050565b60008060008060008060c08789031215620003bf57620003be62000239565b5b6000620003cf89828a016200028c565b9650506020620003e289828a01620002c7565b9550506040620003f589828a0162000302565b94505060606200040889828a0162000347565b93505060806200041b89828a0162000388565b92505060a06200042e89828a01620002c7565b9150509295509295509295565b7f4e487b7100000000000000000000000000000000000000000000000000000000600052602160045260246000fd5b60805160601c60a05160c05160601c60e0516101005160c01c6101205160e01c61014051611aa2620004e6600039600081816108cb0152610a3c015260006105e7015260006105c4015260006105a3015260006105670152600081816102f00152610a9e015260008181610316015261036a0152611aa26000f3fe6080604052600436106100a75760003560e01c80636b68c03c116100645780636b68c03c146101aa5780636e04ff0d146101d557806391ad27b414610213578063c1af57851461023e578063e55ae4e814610248578063fd6673f514610285576100a7565b806309bc33a7146100ac5780631fe543e3146100d75780634585e33b14610100578063473f1ddc1461012957806353a2c19a146101545780635f1b0fd81461017f575b600080fd5b3480156100b857600080fd5b506100c16102b0565b6040516100ce9190611223565b60405180910390f35b3480156100e357600080fd5b506100fe60048036038101906100f991906113d7565b610314565b005b34801561010c57600080fd5b506101276004803603810190610122919061148e565b6103d4565b005b34801561013557600080fd5b5061013e6106d7565b60405161014b919061151c565b60405180910390f35b34801561016057600080fd5b5061016961073d565b6040516101769190611223565b60405180910390f35b34801561018b57600080fd5b50610194610788565b6040516101a19190611223565b60405180910390f35b3480156101b657600080fd5b506101bf6107d1565b6040516101cc91906115ae565b60405180910390f35b3480156101e157600080fd5b506101fc60048036038101906101f7919061167e565b610824565b60405161020a92919061176a565b60405180910390f35b34801561021f57600080fd5b506102286109fc565b6040516102359190611223565b60405180910390f35b610246610a60565b005b34801561025457600080fd5b5061026f600480360381019061026a919061179a565b610cfb565b60405161027c919061151c565b60405180910390f35b34801561029157600080fd5b5061029a610d7f565b6040516102a79190611223565b60405180910390f35b60006102c6676b43bb1d3d73f6cb60c01b610dc8565b6102da67964651b0c6b5b16360c01b610dc8565b6102ee67fefa9a5d4ae6e37560c01b610dc8565b7f0000000000000000000000000000000000000000000000000000000000000000905090565b7f000000000000000000000000000000000000000000000000000000000000000073ffffffffffffffffffffffffffffffffffffffff163373ffffffffffffffffffffffffffffffffffffffff16146103c657337f00000000000000000000000000000000000000000000000000000000000000006040517f1cf993f40000000000000000000000000000000000000000000000000000000081526004016103bd9291906117c7565b60405180910390fd5b6103d08282610dcb565b5050565b6103e86704a65562b5aab22160c01b610dc8565b6103fc67604ba6dd25f1cdaa60c01b610dc8565b610410671f882a416b8a04f660c01b610dc8565b600061042a60405180602001604052806000815250610824565b5090506104416770914b719dcefa5460c01b610dc8565b6104556740e242f518ff407360c01b610dc8565b806104e95761046e6726fe962e1790d59f60c01b610dc8565b610482677705fc967d01bc5b60c01b610dc8565b47600080549050600160149054906101000a900460ff1660018111156104ab576104aa611537565b5b6040517f6e195f250000000000000000000000000000000000000000000000000000000081526004016104e0939291906117f0565b60405180910390fd5b6104fd67506ed716e6f9700060c01b610dc8565b61051167255afd2a196785c560c01b610dc8565b60018060146101000a81548160ff0219169083600181111561053657610535611537565b5b021790555061054f674e6421f4e6c6eb0660c01b610dc8565b61056367196ed879cda1c2ab60c01b610dc8565b60007f000000000000000000000000000000000000000000000000000000000000000073ffffffffffffffffffffffffffffffffffffffff16635d3b1d307f00000000000000000000000000000000000000000000000000000000000000007f000000000000000000000000000000000000000000000000000000000000000060037f000000000000000000000000000000000000000000000000000000000000000060016040518663ffffffff1660e01b815260040161062895949392919061189f565b602060405180830381600087803b15801561064257600080fd5b505af1158015610656573d6000803e3d6000fd5b505050506040513d601f19601f8201168201806040525081019061067a9190611907565b905061069067fac5781f05335a7760c01b610dc8565b6106a4679ce39d018d6b3f9960c01b610dc8565b807febf56642252004c18a776f30d528e7a0ce8c5db14b6596fb6550f630c8a24c6c60405160405180910390a250505050565b60006106ed6786e95ba13b7dcfab60c01b610dc8565b610701676c3cf0dd04f8a4e560c01b610dc8565b61071567bc7ea5cee32dc89460c01b610dc8565b600160009054906101000a900473ffffffffffffffffffffffffffffffffffffffff16905090565b600061075367e2bce22c924f31a760c01b610dc8565b61076767bd90bc440fe7508860c01b610dc8565b61077b675ae39eca36cb3bfc60c01b610dc8565b600163ffffffff16905090565b600061079e67a691bccdf6a3f38560c01b610dc8565b6107b26747c739bb89c91a2f60c01b610dc8565b6107c667de5096d6eb91a9cd60c01b610dc8565b600361ffff16905090565b60006107e76738a7cc67f32890d660c01b610dc8565b6107fb67a490effb4c58610760c01b610dc8565b61080f6767a27f195b20285460c01b610dc8565b600160149054906101000a900460ff16905090565b6000606061083c67390bfec62a223d9760c01b610dc8565b610850676f35ae7b597a421360c01b610dc8565b61086467306010f39725030760c01b610dc8565b6000600160149054906101000a900460ff16600181111561088857610887611537565b5b6000600181111561089c5761089b611537565b5b1490506108b3673a2df68e7c037be660c01b610dc8565b6108c767c8f383ad2d9e351a60c01b610dc8565b60007f0000000000000000000000000000000000000000000000000000000000000000600254426108f89190611963565b11905061090f67b29a48498741956860c01b610dc8565b61092367dd959d32b23eaf0360c01b610dc8565b600080600080549050119050610943679b82f32ffe200d1560c01b610dc8565b6109576765d7afe8c71f5a8960c01b610dc8565b60008047119050610972677cfe2da963f7db7b60c01b610dc8565b83801561097c5750825b80156109855750815b801561098e5750805b95506109a4677c83cb21183d160460c01b610dc8565b6109b8676417c380449fed3960c01b610dc8565b856040518060400160405280600381526020017f30783000000000000000000000000000000000000000000000000000000000008152509550955050505050915091565b6000610a1267763c77af8da00dab60c01b610dc8565b610a26674984a6d37b8357cd60c01b610dc8565b610a3a676457db41e90af20660c01b610dc8565b7f0000000000000000000000000000000000000000000000000000000000000000905090565b610a74673ea39698f0460b4160c01b610dc8565b610a88671c5f59492e051dc860c01b610dc8565b610a9c676444c6d240bfafba60c01b610dc8565b7f0000000000000000000000000000000000000000000000000000000000000000341015610b1e57610ad86721b45986dc38ed6d60c01b610dc8565b610aec678a699d70a9c328a960c01b610dc8565b6040517fda4b15cb00000000000000000000000000000000000000000000000000000000815260040160405180910390fd5b610b3267c1054066c486f97260c01b610dc8565b610b46678ee15b46de35e2f860c01b610dc8565b610b5a67d5923b77ceda086e60c01b610dc8565b60006001811115610b6e57610b6d611537565b5b600160149054906101000a900460ff166001811115610b9057610b8f611537565b5b14610bef57610ba96724d2d99f8f6a466960c01b610dc8565b610bbd67575ad3bc87fe30e060c01b610dc8565b6040517fe76be6fc00000000000000000000000000000000000000000000000000000000815260040160405180910390fd5b610c03673ba5a3a5da2dafc560c01b610dc8565b610c1767c4583aa61f1157df60c01b610dc8565b610c2b675221d649d1f1638260c01b610dc8565b6000339080600181540180825580915050600190039060005260206000200160009091909190916101000a81548173ffffffffffffffffffffffffffffffffffffffff021916908373ffffffffffffffffffffffffffffffffffffffff160217905550610ca2670d7568cb7000e49e60c01b610dc8565b610cb667b348a1bc43be157260c01b610dc8565b3373ffffffffffffffffffffffffffffffffffffffff167f1d64fb5ba9f2548c5b98468d58f25b87b9e866afee0122e92d9fe722bf85076c60405160405180910390a2565b6000610d1167025c85c5b4a8eddd60c01b610dc8565b610d25679a72b8097d8558d960c01b610dc8565b610d3967b079ff9ff611a10d60c01b610dc8565b60008281548110610d4d57610d4c611997565b5b9060005260206000200160009054906101000a900473ffffffffffffffffffffffffffffffffffffffff169050919050565b6000610d95675bc3005f13c95ede60c01b610dc8565b610da9678aa72f6a0eb4c6ae60c01b610dc8565b610dbd67bb00f3e137b63bc860c01b610dc8565b600080549050905090565b50565b610ddf672f45da602e0d323460c01b610dc8565b610df36798870dd0629d82c460c01b610dc8565b610e076739eab81da93a1d2460c01b610dc8565b6000808054905082600081518110610e2257610e21611997565b5b6020026020010151610e3491906119f5565b9050610e4a67c6fbdab108a8a73d60c01b610dc8565b610e5e67ce97cadf0052d8ae60c01b610dc8565b6000808281548110610e7357610e72611997565b5b9060005260206000200160009054906101000a900473ffffffffffffffffffffffffffffffffffffffff169050610eb467dea598d0acd34fd560c01b610dc8565b80600160006101000a81548173ffffffffffffffffffffffffffffffffffffffff021916908373ffffffffffffffffffffffffffffffffffffffff160217905550610f096782554f1271d593e760c01b610dc8565b6000600160146101000a81548160ff02191690836001811115610f2f57610f2e611537565b5b0217905550610f48676ef40be1dc31994a60c01b610dc8565b600067ffffffffffffffff811115610f6357610f62611294565b5b604051908082528060200260200182016040528015610f915781602001602082028036833780820191505090505b5060009080519060200190610fa7929190611163565b50610fbc6721683a7f05d43ce160c01b610dc8565b42600281905550610fd7671a1a5a0567076b8c60c01b610dc8565b610feb670c57eadb901ff24260c01b610dc8565b60008173ffffffffffffffffffffffffffffffffffffffff164760405161101190611a57565b60006040518083038185875af1925050503d806000811461104e576040519150601f19603f3d011682016040523d82523d6000602084013e611053565b606091505b5050905061106b6705ec240f7be7ca3260c01b610dc8565b61107f67a5f57536665e1b4860c01b610dc8565b806110de57611098675d1ed2e08e103d8460c01b610dc8565b6110ac67249ac2249cc8ab0260c01b610dc8565b6040517f1c94012000000000000000000000000000000000000000000000000000000000815260040160405180910390fd5b6110f2676dae29a3c3e4372f60c01b610dc8565b611105665c2a48c872b2c760c01b610dc8565b61111967a3319f60e7c8b75f60c01b610dc8565b8173ffffffffffffffffffffffffffffffffffffffff167f5b690ec4a06fe979403046eaeea5b3ce38524683c3001f662c8b5a829632f7df60405160405180910390a25050505050565b8280548282559060005260206000209081019282156111dc579160200282015b828111156111db5782518260006101000a81548173ffffffffffffffffffffffffffffffffffffffff021916908373ffffffffffffffffffffffffffffffffffffffff16021790555091602001919060010190611183565b5b5090506111e991906111ed565b5090565b5b808211156112065760008160009055506001016111ee565b5090565b6000819050919050565b61121d8161120a565b82525050565b60006020820190506112386000830184611214565b92915050565b6000604051905090565b600080fd5b600080fd5b61125b8161120a565b811461126657600080fd5b50565b60008135905061127881611252565b92915050565b600080fd5b6000601f19601f8301169050919050565b7f4e487b7100000000000000000000000000000000000000000000000000000000600052604160045260246000fd5b6112cc82611283565b810181811067ffffffffffffffff821117156112eb576112ea611294565b5b80604052505050565b60006112fe61123e565b905061130a82826112c3565b919050565b600067ffffffffffffffff82111561132a57611329611294565b5b602082029050602081019050919050565b600080fd5b600061135361134e8461130f565b6112f4565b905080838252602082019050602084028301858111156113765761137561133b565b5b835b8181101561139f578061138b8882611269565b845260208401935050602081019050611378565b5050509392505050565b600082601f8301126113be576113bd61127e565b5b81356113ce848260208601611340565b91505092915050565b600080604083850312156113ee576113ed611248565b5b60006113fc85828601611269565b925050602083013567ffffffffffffffff81111561141d5761141c61124d565b5b611429858286016113a9565b9150509250929050565b600080fd5b60008083601f84011261144e5761144d61127e565b5b8235905067ffffffffffffffff81111561146b5761146a611433565b5b6020830191508360018202830111156114875761148661133b565b5b9250929050565b600080602083850312156114a5576114a4611248565b5b600083013567ffffffffffffffff8111156114c3576114c261124d565b5b6114cf85828601611438565b92509250509250929050565b600073ffffffffffffffffffffffffffffffffffffffff82169050919050565b6000611506826114db565b9050919050565b611516816114fb565b82525050565b6000602082019050611531600083018461150d565b92915050565b7f4e487b7100000000000000000000000000000000000000000000000000000000600052602160045260246000fd5b6002811061157757611576611537565b5b50565b600081905061158882611566565b919050565b60006115988261157a565b9050919050565b6115a88161158d565b82525050565b60006020820190506115c3600083018461159f565b92915050565b600080fd5b600067ffffffffffffffff8211156115e9576115e8611294565b5b6115f282611283565b9050602081019050919050565b82818337600083830152505050565b600061162161161c846115ce565b6112f4565b90508281526020810184848401111561163d5761163c6115c9565b5b6116488482856115ff565b509392505050565b600082601f8301126116655761166461127e565b5b813561167584826020860161160e565b91505092915050565b60006020828403121561169457611693611248565b5b600082013567ffffffffffffffff8111156116b2576116b161124d565b5b6116be84828501611650565b91505092915050565b60008115159050919050565b6116dc816116c7565b82525050565b600081519050919050565b600082825260208201905092915050565b60005b8381101561171c578082015181840152602081019050611701565b8381111561172b576000848401525b50505050565b600061173c826116e2565b61174681856116ed565b93506117568185602086016116fe565b61175f81611283565b840191505092915050565b600060408201905061177f60008301856116d3565b81810360208301526117918184611731565b90509392505050565b6000602082840312156117b0576117af611248565b5b60006117be84828501611269565b91505092915050565b60006040820190506117dc600083018561150d565b6117e9602083018461150d565b9392505050565b60006060820190506118056000830186611214565b6118126020830185611214565b61181f6040830184611214565b949350505050565b6000819050919050565b61183a81611827565b82525050565b600067ffffffffffffffff82169050919050565b61185d81611840565b82525050565b600061ffff82169050919050565b61187a81611863565b82525050565b600063ffffffff82169050919050565b61189981611880565b82525050565b600060a0820190506118b46000830188611831565b6118c16020830187611854565b6118ce6040830186611871565b6118db6060830185611890565b6118e86080830184611890565b9695505050505050565b60008151905061190181611252565b92915050565b60006020828403121561191d5761191c611248565b5b600061192b848285016118f2565b91505092915050565b7f4e487b7100000000000000000000000000000000000000000000000000000000600052601160045260246000fd5b600061196e8261120a565b91506119798361120a565b92508282101561198c5761198b611934565b5b828203905092915050565b7f4e487b7100000000000000000000000000000000000000000000000000000000600052603260045260246000fd5b7f4e487b7100000000000000000000000000000000000000000000000000000000600052601260045260246000fd5b6000611a008261120a565b9150611a0b8361120a565b925082611a1b57611a1a6119c6565b5b828206905092915050565b600081905092915050565b50565b6000611a41600083611a26565b9150611a4c82611a31565b600082019050919050565b6000611a6282611a34565b915081905091905056fea2646970667358221220a5111dd21bd560796f49aedc11c2f68adf5ddf5fca7c282fcbbdda11b99d126264736f6c63430008080033",
  "linkReferences": {},
  "deployedLinkReferences": {}
}